:100000004BEF04F0F76A140FF66E000EF7220900AA
:10001000F550120031326800F76A280FF66E000EB4
:10002000F7220900F5501200414D0000F76A3C0F1D
:10003000F66E000EF7220900F5501200504D000038
:10004000F76A500FF66E000EF7220900F550120005
:1000500032346800F76A640FF66E000EF72209006A
:10006000F550120020200000F76A780FF66E000E9F
:10007000F7220900F5501200444F4D00F76A8C0F2B
:10008000F66E000EF7220900F550120053454700A6
:10009000F76AA00FF66E000EF7220900F550120065
:1000A00054455200F76AB40FF66E000EF7220900AD
:1000B000F550120051554100F76AC80FF66E000E58
:1000C000F7220900F550120051554900F76ADC0F7C
:1000D000F66E000EF7220900F55012005345580045
:1000E000F76AF00FF66E000EF7220900F5501200C5
:1000F00053414200F76A040FF66E010EF722090021
:10010000F5501200455252000A257320202020206D
:10011000253032642F253032642F253032640000C0
:10012000080E016E1E0E006E002EFED78B96949662
:100130001F0E006E002EFED71B368B98D8B0948809
:10014000D8A09498948682A6FED7012EEBD71E0ED7
:10015000006E002EFED78B969496000094881F0E9A
:10016000006E002EFED71F0E006E002EFED7948666
:1001700082A6FED7016A1F0E006E002EFED782B83F
:1001800001808B9694968B9894981200080E1D6EA1
:1001900000C01EF094881F0E006E002EFED79486BD
:1001A00082A6FED782B8D88082A8D89001361E0ECB
:1001B000006E002EFED794968B961D2EEBD794885A
:1001C0001F0E006E002EFED78B981E50D8A4949858
:1001D0000000948682A6FED71E0E006E002EFED76B
:1001E0008B9694961F0E006E002EFED78B989498D7
:1001F000120094881E0E006E002EFED794861F0EED
:10020000006E002EFED78B9894981E0E006E002E66
:10021000FED78B969496D00E1B6E82DF18C01BF013
:100220007FDF94881E0E006E002EFED794861F0E70
:10023000006E002EFED782A6FED78B9894981E0ED5
:10024000006E002EFED78B969496D10E1B6E68DF43
:10025000006A9CDF01C019F094980000948682A681
:10026000FED71E0E006E002EFED700D00000948830
:100270001E0E006E002EFED719C001F06FEF01F0C8
:1002800094881E0E006E002EFED794861F0E006E00
:10029000002EFED78B9894981E0E006E002EFED76F
:1002A0008B969496D00E1B6E3BDF19C01BF038DF87
:1002B0001AC01BF035DF94980000948682A6FED702
:1002C0001E0E006E002EFED700D0000094881E0E79
:1002D000006E002EFED775EF01F0186A8AD7015024
:1002E0007F0B186E196A1A6ECBD75AEF04F0EA6AC0
:1002F000230EE96EEF500EE00C0E016E006A002E28
:10030000FED7012EFBD7F70E006E002EFED700D0D1
:10031000EF2EF2D7120024B002D08C9801D08C8836
:10032000959824B202D08C9A01D08C8A959A24B4E4
:1003300002D08C9C01D08C8C959C24B602D08C9ED3
:1003400001D08C8E959E96928D8296928D921200FF
:10035000020E235E0BE3EA6A230EE96EEF5006E01D
:10036000020E006E002EFED7EF2EFAD7C3EF01F07B
:1003700096908D90215202E18D9001D08D809690C3
:10038000640E236EE5D796928D922238236E0F0E5F
:10039000231623C024F0BFDF22500F0B236E246EE0
:1003A000BADF010E236EA3DF120096908D90969215
:1003B0008D9295988C98959A8C9A959C8C9C959EEC
:1003C0008C9E0F0E236E93DF010E176E17500308DD
:1003D00008E3030E246E9FDF050E236E88DF172AC5
:1003E000F5D7020E246E97DF216A280E226EC0DF39
:1003F000216A0C0E226EBCDF216A010E226EB8DF6C
:10040000216A060E226EB4DF050E236E70DF5BEFED
:1004100004F01D500F0B1E6E1D50700B006E003847
:100420001F6E0F0E1F161F500A0DF3501E24016E73
:10043000120022C0E9FF23C0EAFF000E1FBC010E1C
:10044000EF6E23C003F022C0E9FF23C0EAFFEF52A2
:1004500010E01F50100B006E0038246E0F0E241693
:1004600020C0E9FF21C0EAFF000E1FBA010EEF6EA7
:1004700007D01F50300B006E0038246E0F0E24166C
:100480001F500F0B256E24500A0DF3502524016ECA
:100490000DEF03F01D38006E0F0E001600500A0D10
:1004A000F3CF1EF01D500F0B1E24016E24EF03F03E
:1004B0001D500F0B1F6E1D50300B006E00381E6E4E
:1004C0000F0E1E161E500A0DF3501F24016E47EF2B
:1004D00003F01D500F0B1E6E1D50100B006E0038E8
:1004E0001F6E0F0E1F161F500A0DF3501E24016EB3
:1004F0005EEF03F01D500F0B1E6E1D50F00B006ED3
:1005000000381F6E0F0E1F161F500A0DF3501E24C9
:10051000016E74EF03F094881E0E006E002EFED75D
:1005200094861F0E006E002EFED78B9894981E0E98
:10053000006E002EFED78B969496D00E1B6EF0DDCB
:100540001B6AEEDD94881E0E006E002EFED7948688
:100550001F0E006E002EFED782A6FED78B989498B1
:100560001E0E006E002EFED78B969496D10E1B6E3B
:10057000D7DD010E1724016E000E1820036E01C096
:100580001AF01B6E010E006E01DE01C01CF001C0EE
:100590001DF03FDF1BC0EAFF1AC0E9FF01C0EFFFFB
:1005A000020E1724016E000E1820036E01C01AF00F
:1005B0001B6E010E006EEADD01C01CF001C01DF0D3
:1005C00028DF1BC0EAFF1AC0E9FF01C0EFFF030EDE
:1005D0001724016E000E1820036E01C01AF01B6E66
:1005E000010E006ED3DD01C01CF017C0E9FF18C07A
:1005F000EAFF000EEFB0010E1D6E17C0E9FF18C034
:10060000EAFF000EEFB0010E1E6E01C01FF0216A5E
:100610001DC020F0236A226E0CD71BC0EAFF1AC04F
:10062000E9FF01C0EFFF030E1724016E000E182032
:10063000036E01C01AF01B6E010E006EA7DD0150A3
:10064000630B1C6E1D6E26D71BC0EAFF1AC0E9FFA4
:1006500001C0EFFF040E1724E96E000E1820EA6EA9
:10066000010E006E93DD0150070BEF6E050E17248F
:10067000016E000E1820036E01C01AF01B6E010EF1
:10068000006E84DD01C01CF001C01DF011D71BC03D
:10069000EAFF1AC0E9FF01C0EFFF060E1724016E42
:1006A000000E1820036E01C01AF01B6E010E006EC2
:1006B0006DDD01C01CF001C01DF00BD71BC0EAFFAF
:1006C0001AC0E9FF01C0EFFF070E1724016E000EEC
:1006D0001820036E01C01AF01B6E006A57DD01C0BE
:1006E0001CF001C01DF006D71BC0EAFF1AC0E9FFCD
:1006F00001C0EFFF94980000948682A6FED71E0EDC
:10070000006E002EFED700D0000094881E0E006EF2
:10071000002EFED769EF04F01F2C01D003D0C00ECD
:10072000206E02D0800E206E010E1E5C2026216AF3
:1007300020C022F01DDEBFEF03F01D500C0A07E0C1
:10074000060A0DE0070A0BE0050A0FE013D0216A44
:10075000010E226E0DDE020E236EC9DD10D0010ED9
:100760001E6E020E1F6ED8D70AD0216A100E226E9E
:10077000FFDD05D0010E216E1DC022F0F9DD120053
:10078000EF520FE0EACF18F0E9CF17F0EFCF1DF0EE
:10079000D4DF18C0EAFF17C0E9FFE92AD8B4EA2A73
:1007A000EFD712001E50016A1D5C03E21DC000F06D
:1007B0000CD0006A080E1F6E1D3600361E50005CFD
:1007C000D8B0006E01361F2EF7D71200200E18A8E1
:1007D000300E196E17C000F017AE08D0001E002AA8
:1007E00000C017F02D0E196E188E1880015017C01A
:1007F0001DF0640E1E6ED6DF00C017F0300E01240F
:100800001A6E17C01DF00A0E1E6ECCDF300E0024CB
:100810001C6E300E01241B6E19C000F0300E1A5CE5
:1008200004E0188218BE188412D018B410D019C071
:100830001AF018B204D0300E1B5C04E0188018BE09
:10084000188205D0D8A41880D8B41AC01BF018B4E8
:1008500005D018B206D018B007D009D019C01DF0C5
:100860006CDF1AC01DF069DF1BC01DF066DF1CC005
:100870001DF063DF12000900F6CF18F0F7CF19F072
:10088000F5CF1DF05ADF18C0F6FF19C0F7FF172E7D
:10089000F2D75CEF05F0F86AD09EEA6AE96A400E8A
:1008A000AF6EA20EAC6E900EAB6EC180C182C184E1
:1008B000C19613D57AD5640E236E19DD020E176E1C
:1008C000FA0E236E14DD172EFBD7186A040E176E6E
:1008D00022D604A228D0EA6A0C0EE96E000E02ECC1
:1008E00000F00A000900F550EE6E0009FBE104A0DB
:1008F0000DD0EA6A100EE96E000E0CEC00F00A0052
:100900000900F550EE6E0009FBE10CD0EA6A100E0A
:10091000E96E000E16EC00F00A000900F550EE6ECC
:100920000009FBE118D0EA6A0C0EE96E000E20EC1B
:1009300000F00A000900F550EE6E0009FBE1EA6ADA
:10094000100EE96E000E2AEC00F00A000900F550C6
:10095000EE6E0009FBE1126A0F6A010E085C0DE001
:10096000010A18E0030A23E0010A2EE0070A39E031
:10097000010A44E0030A4FE05BD0EA6A130EE96E15
:10098000000E34EC00F00A000900F550EE6E00098C
:10099000FBE15AD0EA6A130EE96E000E3EEC00F05D
:1009A0000A000900F550EE6E0009FBE14DD0EA6A3D
:1009B000130EE96E000E48EC00F00A000900F55035
:1009C000EE6E0009FBE140D0EA6A130EE96E000EFC
:1009D00052EC00F00A000900F550EE6E0009FBE150
:1009E00033D0EA6A130EE96E000E5CEC00F00A00E8
:1009F0000900F550EE6E0009FBE126D0EA6A130EFD
:100A0000E96E000E66EC00F00A000900F550EE6E8B
:100A10000009FBE119D0EA6A130EE96E000E70ECD2
:100A200000F00A000900F550EE6E0009FBE10CD061
:100A3000EA6A130EE96E000E7AEC00F00A00090073
:100A4000F550EE6E0009FBE1166A0C0E1D6E75DEA8
:100A5000EA6A0C0EE96E94DE200E1D6E6EDEEA6A06
:100A6000100EE96E8DDE200E1D6E67DE200E1D6EEF
:100A700064DE07C017F0010E186EA8DE3A0E1D6E78
:100A80005CDE06C017F0010E186EA0DE3A0E1D6E79
:100A900054DE05C017F0010E186E98DE0A0E1D6EAA
:100AA0004CDEEA6A130EE96E6BDE0B0EF66E010E7B
:100AB000F76E050E176EDFD609C017F0010E186E1F
:100AC00085DE2F0E1D6E39DE0AC017F0010E186E7E
:100AD0007DDE2F0E1D6E31DE0BC017F0010E186E7D
:060AE00075DEECD60300F8
:020000040030CA
:0E00000000260E0E000181000FC00FE00F4021
:00000001FF
;PIC18F452
;CRC=9963  CREATED="27-jul-13 11:57"
