:10000000AEEF02F0080E016E180E006E002EFED745
:100010008B969496180E006E002EFED711368B9894
:10002000D8B09488D8A09498948682A6FED7012E42
:10003000EBD7180E006E002EFED78B96949600001C
:100040009488180E006E002EFED7180E006E002E3B
:10005000FED7948682A6FED7016A180E006E002E87
:10006000FED782B801808B9694968B989498120054
:10007000080E126E00C013F09488180E006E002E49
:10008000FED7948682A6FED782B8D88082A8D89060
:100090000136180E006E002EFED794968B96122E07
:1000A000EBD79488180E006E002EFED78B98135055
:1000B000D8A494980000948682A6FED7180E006EED
:1000C000002EFED78B969496180E006E002EFED74B
:1000D0008B98949812009488180E006E002EFED70C
:1000E0009486180E006E002EFED78B989498180EEA
:1000F000006E002EFED78B969496D00E116E82DF86
:100100000EC011F07FDF9488180E006E002EFED70F
:100110009486180E006E002EFED782A6FED78B980E
:100120009498180E006E002EFED78B969496D10EE2
:10013000116E68DF006A9CDF01C00FF09498000028
:10014000948682A6FED7180E006E002EFED700D031
:1001500000009488180E006E002EFED70FC001F02C
:10016000E1EF00F09488180E006E002EFED7948602
:10017000180E006E002EFED78B989498180E006E05
:10018000002EFED78B969496D00E116E3BDF0FC0DB
:1001900011F038DF10C011F035DF9498000094861C
:1001A00082A6FED7180E006E002EFED700D00000EB
:1001B0009488180E006E002EFED7E7EF00F00E6A4E
:1001C0008AD701507F0B0E6E0F6A106ECBD7BDEF32
:1001D00002F012500F0B136E1250700B006E0038AD
:1001E000146E0F0E141614500A0DF3501324016EE2
:1001F000120013AE10D01350100B006E0038166EA4
:100200000F0E161614C0E9FF15C0EAFF000E13BA50
:10021000010EEF6E07D01350300B006E0038166ED3
:100220000F0E161613500F0B176E16500A0DF350C3
:100230001724016EC6EF01F012500F0B146E12500E
:10024000300B006E0038136E0F0E131613500A0D8C
:10025000F3501424016EE9EF01F012500F0B136EEE
:100260001250100B006E0038146E0F0E141614503E
:100270000A0DF3501324016E00EF02F012500F0B21
:10028000136E1250F00B006E0038146E0F0E141621
:1002900014500A0DF3501324016E16EF02F09488E7
:1002A000180E006E002EFED79486180E006E002EDB
:1002B000FED78B989498180E006E002EFED78B9662
:1002C0009496D00E116E9EDE116A9CDE9488180EF4
:1002D000006E002EFED79486180E006E002EFED7FC
:1002E00082A6FED78B989498180E006E002EFED72B
:1002F0008B969496D10E116E85DE010E0D24016E43
:10030000000E0E20036E01C00FF0106E010E006E85
:10031000AFDE01C011F001C012F05BDF10C0EAFFD8
:100320000FC0E9FF01C0EFFF020E0D24016E000EA9
:100330000E20036E01C00FF0106E010E006E98DEED
:1003400001C011F001C012F044DF10C0EAFF0FC07D
:10035000E9FF01C0EFFF030E0D24016E000E0E2019
:10036000036E01C00FF0106E010E006E81DE01C041
:1003700011F00DC0E9FF0EC0EAFF000EEFB0010E54
:10038000126E01C013F0156A146E33D710C0EAFF65
:100390000FC0E9FF01C0EFFF040E0D24E96E000E4F
:1003A0000E20EA6E010E006E63DE0150070BEF6E49
:1003B000050E0D24016E000E0E20036E01C00FF01D
:1003C000106E010E006E54DE01C011F001C012F07B
:1003D00033D710C0EAFF0FC0E9FF01C0EFFF060EE0
:1003E0000D24016E000E0E20036E01C00FF0106E82
:1003F000010E006E3DDE01C011F001C012F02DD7DC
:1004000010C0EAFF0FC0E9FF01C0EFFF070E0D2487
:10041000016E000E0E20036E01C00FF0106E006A18
:1004200027DE01C011F001C012F028D710C0EAFF8A
:100430000FC0E9FF01C0EFFF94980000948682A6E8
:10044000FED7180E006E002EFED700D00000948854
:10045000180E006E002EFED71200EA6A0E0EE96E2C
:10046000EF500DE00A0E016E006A002EFED7012E3D
:10047000FBD75F0E006E002EFED7EF2EF3D7C6EF30
:1004800002F01450016A135C03E213C000F00CD0B8
:10049000006A080E156E133600361450005CD8B092
:1004A000006E0136152EF7D71200200E0EA8300E62
:1004B0000F6E0DC000F00DAE08D0001E002A00C067
:1004C0000DF02D0E0F6E0E8E0E8001500DC013F02C
:1004D000640E146ED6DF00C00DF0300E0124106ED5
:1004E0000DC013F00A0E146ECCDF300E0024126E15
:1004F000300E0124116E0FC000F0300E105C04E0CD
:100500000E820EBE0E8412D00EB410D00FC010F0AA
:100510000EB204D0300E115C04E00E800EBE0E82CE
:1005200005D0D8A40E80D8B410C011F00EB405D0F8
:100530000EB207D00EB009D00CD00F509EA8FED737
:10054000AD6E10509EA8FED7AD6E11509EA8FED77E
:10055000AD6E12509EA8FED7AD6E1200F86AD09E06
:10056000EA6AE96A330EAF6EA20EAC6E900EAB6E05
:10057000C180C182C184C19622D60E6A040E0D6E5E
:100580008EDE020E0D6EFA0E0E6E67D70D2EFBD7A5
:100590000E6A040E0D6E83DE0C0E9EA8FED7AD6EA5
:1005A00007C00DF0010E0E6E80DF3A0E9EA8FED73A
:1005B000AD6E06C00DF0010E0E6E77DF3A0E9EA8EE
:1005C000FED7AD6E05C00DF0010E0E6E6EDF0A0E89
:1005D0009EA8FED7AD6E09C00DF0010E0E6E65DF50
:1005E0002F0E9EA8FED7AD6E0AC00DF0010E0E6E46
:1005F0005CDF2F0E9EA8FED7AD6E0BC00DF0010E76
:080600000E6E53DFBED70300AC
:020000040030CA
:0E00000000260E0E000181000FC00FE00F4021
:00000001FF
;PIC18F452
;CRC=650A  CREATED="26-jul-13 15:08"
