:1000000005308A007E2D00000A108A100A1182072E
:1000100044344F344D3400340A108A100A118207D8
:1000200053344534473400340A108A100A118207C9
:1000300054344534523400340A108A100A118207AD
:1000400051345534413400340A108A100A118207A1
:1000500051345534493400340A108A100A11820789
:1000600053344534583400340A108A100A11820778
:1000700053344134423400340A108A100A11820782
:1000800045345234523400340A108A100A1182075F
:1000900031343234683400340A108A100A1182076D
:1000A00041344D3400340A108A100A11820750344A
:1000B0004D3400340A108A100A1182073234343465
:1000C000683400340A108A100A1182072034203460
:1000D00000340A108A100A1182070A342534733456
:1000E0002034203420342034203425343034323449
:1000F00064342F3425343034323464342F3425348E
:1001000030343234643400343630840083130008D1
:10011000031998280130F800F701F70B8D28F80B28
:100120008C284A30F700F70B93289628800B8A28F2
:1001300008000830F80000008612831686120000BE
:100140008312C00D0612031CA828831606168312FC
:100150000318AD288316061283128316861683129F
:10016000861EB028F80B9B28000086128316861284
:10017000000006160000000086168312861EBE28A8
:10018000F8010000061A781486128316861283126C
:100190000612831606128312080083160616000044
:1001A00086160000831206128316061200008312C0
:1001B000861283168612D0308312C00099203E0822
:1001C000C0009920831606160000861600008312D0
:1001D000861EE82806128316061200008312861275
:1001E00083168612D1308312C0009920F70108309F
:1001F000C1007708C2008316061600008616831217
:10020000861E0029061A0314061E0310F80D0000AE
:100210008316861283128612C10BFB2883160616DC
:1002200000008312061242080319192983160612C8
:1002300083120000831686168312861E1D29000075
:100240008612831686120000831206128316061287
:1002500078088312BF0083160612000086168312E8
:10026000861E30290000342900008316061600007F
:1002700083123F08F8000800831606160000861651
:1002800000008312061283160612000083128612E3
:1002900083168612D0308312C00099203708C00020
:1002A00099203808C000992083160612000086168F
:1002B0008312861E592900005D2900008316061648
:1002C00000008312080035148316061600008616F7
:1002D0000000831206128316061200008312861293
:1002E00083168612D0308312C0009920780835100A
:1002F0007818351483160612000086168312861E9F
:100300007F2900008329000083160616000083124F
:1003100035189329BE01CD2078087F39B600B70182
:100320003608B8003C21003035180130F8008D2D1A
:100330003F08F8013E020318A0293E08F700AC2947
:10034000F7010830C000BE0DF70D3F087702031813
:10035000F700F80DC00BA3290800F701F8014608C3
:1003600003104718F707F70CF80CC718F707F70C36
:10037000F80C4719F707F70CF80CC719F707F70C33
:10038000F80C471AF707F70CF80CC71AF707F70C21
:10039000F80C471BF707F70CF80CC71BF707F70C0F
:1003A000F80C08003808BE000A30BF009821780811
:1003B000BA003A08C6000A30C700AD2178083802F2
:1003C000B9003A0EF700F030F70577083904F80065
:1003D00008000130340784008313351883170008A0
:1003E0007F39B600B800D2217808B600B701780886
:1003F000B8003C210130B60084200230340784006C
:1004000083133518831700087F39B600B800D2214E
:100410007808B6000130B7007808B8003C210130F8
:10042000B600842034088400831335188317000E27
:10043000B600B60DB60DC030B6053408840083137F
:1004400035188317000EF700F70DE030F705770831
:10045000B60403303407840083133518831700086B
:100460003F39B700B800D2217808B6040230B7008F
:100470003608B8003C210130B6008420043034072F
:10048000840083133518831700080739B60003303A
:10049000B7003608B8003C210130B6008420053092
:1004A0003407840083133518831700083F39B600DA
:1004B000B800D2217808B6000430B7007808B80038
:1004C0003C210130B60084200630340784008313B9
:1004D0003518831700081F39B600B800D2217808F4
:1004E000B6000530B7007808B8003C210130B600EE
:1004F00084200730340784008313351883170008DD
:10050000B600B800D2217808B6000630B7007808E7
:10051000B8003C210130B60084200730B700B80194
:100520003C21AD2D39080F39BA0039087039F70070
:10053000770EBB000F30BB050A30C6003B08C70072
:10054000AD213A087807F80008000330BE00CD203E
:1005500078080739F800080001303407F80035083A
:10056000FA000318FA0A7808B6007A08B700BE0144
:10057000CD207808B800B9009222780836088400A7
:100580008313371883177808800002303407F80087
:100590003508FA000318FA0A7808B6007A08B70096
:1005A0000130BE00CD207808B800B900922278084A
:1005B00036088400831337188317780880000330C7
:1005C0003407F8003508FA000318FA0A7808B6006C
:1005D0007A08B70034088400831335188317B801EC
:1005E0000018B80A34088400831335188317B9013A
:1005F0008018B90ABB013808BA00BD013908BC002F
:100600000230BE00CD207808BE003E08BF00C10108
:100610003A30C000C3013C30C2004208840083135A
:100620004318831700303F1B013080004308FA0055
:100630004208840083137A18831780080319312B2A
:100640003F081039F700770EC4000F30C40540088A
:1006500084008313411883170030BF1A01308000D3
:10066000382B3F083039F700770EC4000F30C4052F
:100670003F080F39C5000A30C6004408C700AD2145
:1006800045087807F800780836088400831337187F
:1006900083177808800004303407F8003508FA0022
:1006A0000318FA0A7808B6007A08B700A5223608B7
:1006B00084008313371883177808800005303407C7
:1006C000F8003508FA000318FA0A7808B6007A0824
:1006D000B7000430BE00CD207808B8003808B90053
:1006E00039080F39BB0039083039F700770EBA00E6
:1006F0000F30BA053A08C6000A30C700AD213B08E2
:100700007807F800780836088400831337188317B1
:100710007808800006303407F8003508FA0003181E
:10072000FA0A7808B6007A08B7000530BE00CD2076
:100730007808B8003808B90039080F39BA00390804
:100740001039F700770EBB000F30BB053B08C60021
:100750000A30C700AD213A087807F8007808360853
:100760008400831337188317780880000730340714
:10077000F8003508FA000318FA0A7808B6007A0873
:10078000B7000630BE00CD207808B8003808B900A0
:1007900039080F39BA003908F039F700770EBB0075
:1007A0000F30BB053B08C6000A30C700AD213A0830
:1007B0007807F80078083608840083133718831701
:1007C00078088000BB2D38088400831339188317FC
:1007D000801C292CBA01BB0134088400831335180E
:1007E00083173A0884073B08442080000038031927
:1007F000FC2BBB0ABA0AEC2B380884008313391887
:100800008317001C162CBA01BB0136088400831321
:10081000371883173A0884073B084C2080000038BB
:100820000319152CBB0ABA0A052C282CBA01BB01E6
:10083000360884008313371883173A0884073B0867
:100840005320800000380319282CBB0ABA0A182C40
:100850004D2CBA01BB01340884008313351883176B
:100860003A0884073B085A208000003803193B2CC3
:10087000BB0ABA0A2B2CBA01BB01360884008313C9
:10088000371883173A0884073B0862208000003835
:1008900003194D2CBB0ABA0A3D2CC52D043036076E
:1008A00084008313371883170008013A03196B2C4F
:1008B000033A03197E2C013A0319912C073A0319C4
:1008C000A42C013A0319B72C033A0319CA2C013A94
:1008D0000319DD2CF02CB801B9013408840083130E
:1008E0003518831738088407390804208000003839
:1008F00003197D2CB90AB80A6D2C022DB801B90173
:10090000340884008313351883173808840739089E
:100910000C20800000380319902CB90AB80A802CEA
:10092000022DB801B90134088400831335188317E8
:100930003808840739081420800000380319A32CD4
:10094000B90AB80A932C022DB801B9013408840001
:100950008313351883173808840739081C20800052
:1009600000380319B62CB90AB80AA62C022DB80112
:10097000B9013408840083133518831738088407B5
:1009800039082420800000380319C92CB90AB80A94
:10099000B92C022DB801B90134088400831335182D
:1009A00083173808840739082C2080000038031981
:1009B000DC2CB90AB80ACC2C022DB801B9013408D4
:1009C00084008313351883173808840739083420C6
:1009D000800000380319EF2CB90AB80ADF2C022D69
:1009E000B801B90134088400831335188317380817
:1009F000840739083C20800000380319022DB90A09
:100A0000B80AF22CA5227808CE2D8316061183127F
:100A100006110830F8000C2D0000F8171D2DF813F2
:100A2000BE0C03180615031C061178171D2D78132C
:100A3000F80B102D1B2D000006151C308400840BB4
:100A40001F2D222DF81B0F2D781B172D080020308D
:100A5000391E3030BA003808F700B81F372DF709B3
:100A6000F70A7708B8002D30BA00B91739143808DA
:100A7000BE006430BF0098217708B8003030780796
:100A8000BB003808BE000A30BF009821303077071D
:100A9000BD0030307807BC003A08F70030303B0228
:100AA0000319562DB914B91B39156A2D39196A2D38
:100AB0003A08BB00B918612D30303C020319642D8F
:100AC0003914B91BB9146A2D031D3914031D6A2D7D
:100AD0003B08BC003919712DB918742D3918772DC0
:100AE0007A2D3A08BE0005253B08BE0005253C08C6
:100AF000BE0005253D08BE000525080003081F3976
:100B0000830083168E1506118312061507309F0089
:100B100083136430B600842063298316061483127D
:100B20000618B42D6430B600842083160614831290
:100B30000618B42DA1010330A2001030A300063026
:100B4000A4001B30A5000130A6000F30A700A010A4
:100B50002010B5012030B400E9290230B400FA3089
:100B6000B6008420B40BAF2D6430B6008420B501EC
:100B70002030B400AC2AB5012830B400B7012C30C5
:100B8000B600B9012030B800E32BAE01AB01B501CE
:100B90002F30B400B7012030B6004E2CB20121082E
:100BA00033020319622E2108B3000C30BE00052564
:100BB000283084008313003000040319EF2DB501A1
:100BC0000408B4003510831B35140008BE00052549
:100BD00034088400831335188317840ADB2D2030F2
:100BE000BE0005252C308400831300300004031957
:100BF000092EB7010408B6003710831B371400080C
:100C0000BE00052536088400831337188317840A2D
:100C1000F52D2030BE0005252030BE000525230817
:100C2000B8000130B90027253A30BE00052522085A
:100C3000B8000130B90027253A30BE00052521084B
:100C4000B8000130B90027250A30BE0005252F3035
:100C5000840083130030000403193E2EB5010408FC
:100C6000B4003510831B35140008BE000525340878
:100C70008400831335188317840A2A2E0330B600A4
:100C800036086920B60AF700BE000525083036028E
:100C9000031D402E2508B8000130B90027252F304C
:100CA000BE0005252608B8000130B90027252F30E1
:100CB000BE0005252708B8000130B90027250D30F2
:0C0CC000BE0005258D2D0030F8006300FB
:02400E00703F01
:00000001FF
;PIC16F628A
;CRC=85FE  CREATED="27-fev-15 17:01"
