:1000000084EF03F00C2020202020202020253032F7
:10001000643A253032643A253032640A20202020A8
:1000200020202020253032642F253032642F2530C7
:1000300032640000080E016E1E0E006E002EFED708
:100040008B9694961F0E006E002EFED711368B985D
:10005000D8B09488D8A09498948682A6FED7012E12
:10006000EBD71E0E006E002EFED78B9694960000E6
:1000700094881F0E006E002EFED71F0E006E002EFD
:10008000FED7948682A6FED7016A1F0E006E002E50
:10009000FED782B801808B9694968B989498120024
:1000A000080E126E00C013F094881F0E006E002E12
:1000B000FED7948682A6FED782B8D88082A8D89030
:1000C00001361E0E006E002EFED794968B96122ED1
:1000D000EBD794881F0E006E002EFED78B9813501E
:1000E000D8A494980000948682A6FED71E0E006EB7
:1000F000002EFED78B9694961F0E006E002EFED714
:100100008B989498120094881E0E006E002EFED7D5
:1001100094861F0E006E002EFED78B9894981E0EAC
:10012000006E002EFED78B969496D00E116E82DF55
:100130000EC011F07FDF94881E0E006E002EFED7D9
:1001400094861F0E006E002EFED782A6FED78B98D7
:1001500094981E0E006E002EFED78B969496D10EAC
:10016000116E68DF006A9CDF01C00FF094980000F8
:10017000948682A6FED71E0E006E002EFED700D0FB
:10018000000094881E0E006E002EFED70FC001F0F6
:10019000F9EF00F094881E0E006E002EFED79486B4
:1001A0001F0E006E002EFED78B9894981E0E006EC8
:1001B000002EFED78B969496D00E116E3BDF0FC0AB
:1001C00011F038DF10C011F035DF949800009486EC
:1001D00082A6FED71E0E006E002EFED700D00000B5
:1001E00094881E0E006E002EFED7FFEF00F00E6A00
:1001F0008AD701507F0B0E6E0F6A106ECBD793EF2C
:1002000003F0EA6A190EE96EEF500EE00C0E016E73
:10021000006A002EFED7012EFBD7F70E006E002ECF
:10022000FED700D0EF2EF2D712001AB002D08C9871
:1002300001D08C8895981AB202D08C9A01D08C8A01
:10024000959A1AB402D08C9C01D08C8C959C1AB6CD
:1002500002D08C9E01D08C8E959E96928D82969225
:100260008D921200020E195E0BE3EA6A190EE96E16
:10027000EF5006E0020E006E002EFED7EF2EFAD7EA
:100280004DEF01F096908D90175202E18D9001D0C4
:100290008D809690640E196EE5D796928D921838DF
:1002A000196E0F0E191619C01AF0BFDF18500F0B78
:1002B000196E1A6EBADF010E196EA3DF1200969046
:1002C0008D9096928D9295988C98959A8C9A959CF3
:1002D0008C9C959E8C9E0F0E196E93DF010E0D6EF9
:1002E0000D50030808E3030E1A6E9FDF050E196E0A
:1002F00088DF0D2AF5D7020E1A6E97DF176A280ECF
:10030000186EC0DF176A0C0E186EBCDF176A010E7C
:10031000186EB8DF176A060E186EB4DF050E196E78
:1003200070DF94EF03F012500F0B136E1250700B2E
:10033000006E0038146E0F0E141614500A0DF35090
:100340001324016E120013AE10D01350100B006E68
:100350000038166E0F0E161614C0E9FF15C0EAFF1E
:10036000000E13BA010EEF6E07D01350300B006E63
:100370000038166E0F0E161613500F0B176E165010
:100380000A0DF3501724016E70EF02F012500F0B9C
:10039000146E1250300B006E0038136E0F0E1316D1
:1003A00013500A0DF3501424016E93EF02F0125013
:1003B0000F0B136E1250100B006E0038146E0F0EE0
:1003C000141614500A0DF3501324016EAAEF02F014
:1003D00012500F0B136E1250F00B006E0038146E9B
:1003E0000F0E141614500A0DF3501324016EC0EFB3
:1003F00002F094881E0E006E002EFED794861F0E0B
:10040000006E002EFED78B9894981E0E006E002E64
:10041000FED78B969496D00E116E0CDE116A0ADE12
:1004200094881E0E006E002EFED794861F0E006E5E
:10043000002EFED782A6FED78B9894981E0E006ED3
:10044000002EFED78B969496D10E116EF3DD010E21
:100450000D24016E000E0E20036E01C00FF0106E11
:10046000010E006E1DDE01C011F001C012F05BDF55
:1004700010C0EAFF0FC0E9FF01C0EFFF020E0D241C
:10048000016E000E0E20036E01C00FF0106E010E03
:10049000006E06DE01C011F001C012F044DF10C092
:1004A000EAFF0FC0E9FF01C0EFFF030E0D24016E4C
:1004B000000E0E20036E01C00FF0106E010E006ED4
:1004C000EFDD01C011F00DC0E9FF0EC0EAFF000E24
:1004D000EFB0010E126E01C013F0156A146E33D71F
:1004E00010C0EAFF0FC0E9FF01C0EFFF040E0D24AA
:1004F000E96E000E0E20EA6E010E006ED1DD015095
:10050000070BEF6E050E0D24016E000E0E20036E1C
:1005100001C00FF0106E010E006EC2DD01C011F0BF
:1005200001C012F033D710C0EAFF0FC0E9FF01C0CD
:10053000EFFF060E0D24016E000E0E20036E01C0AB
:100540000FF0106E010E006EABDD01C011F001C0A6
:1005500012F02DD710C0EAFF0FC0E9FF01C0EFFF76
:10056000070E0D24016E000E0E20036E01C00FF069
:10057000106E006A95DD01C011F001C012F028D79D
:1005800010C0EAFF0FC0E9FF01C0EFFF9498000020
:10059000948682A6FED71E0E006E002EFED700D0D7
:1005A000000094881E0E006E002EFED7A2EF03F00E
:1005B000152C01D003D0C00E166E02D0800E166E20
:1005C000010E145C1626176A16C018F05BDE0BEFDE
:1005D00003F013500C0A07E0060A0DE0070A0BE0CF
:1005E000050A0FE013D0176A010E186E4BDE020EDB
:1005F000196E07DE10D0010E146E020E156ED8D7DC
:100600000AD0176A100E186E3DDE05D0010E176E67
:1006100013C018F037DE12000900F6CF0EF0F7CF46
:100620000FF0F5CF13F0D5DF0EC0F6FF0FC0F7FFC8
:100630000D2EF2D712001450016A135C03E213C0AE
:1006400000F00CD0006A080E156E133600361450F8
:10065000005CD8B0006E0136152EF7D71200200EC0
:100660000EA8300E0F6E0DC000F00DAE08D0001EAB
:10067000002A00C00DF02D0E0F6E0E8E0E80015060
:100680000DC013F0640E146ED6DF00C00DF0300EF6
:100690000124106E0DC013F00A0E146ECCDF300E64
:1006A0000024126E300E0124116E0FC000F0300EC7
:1006B000105C04E00E820EBE0E8412D00EB410D078
:1006C0000FC010F00EB204D0300E115C04E00E80AA
:1006D0000EBE0E8205D0D8A40E80D8B410C011F082
:1006E0000EB405D00EB206D00EB007D009D00FC0A0
:1006F00013F06FDF10C013F06CDF11C013F069DF6F
:1007000012C013F066DF1200F86AD09EEA6AE96A46
:10071000400EAF6EA20EAC6E900EAB6EC180C18269
:10072000C184C19664D5CBD5640E196E6ADD020E04
:100730000D6EFA0E196E65DD0D2EFBD70E6A040ED6
:100740000D6E57D6040EF66E000EF76E090E0D6E86
:1007500063DF07C00DF0010E0E6E81DF3A0E136EDF
:1007600038DF06C00DF0010E0E6E79DF3A0E136E03
:1007700030DF05C00DF0010E0E6E71DF1B0EF66E40
:10078000000EF76E090E0D6E47DF09C00DF0010E69
:100790000E6E65DF2F0E136E1CDF0AC00DF0010E0A
:1007A0000E6E5DDF2F0E136E14DF0BC00DF0010E09
:0807B0000E6E55DFBCD70300FB
:020000040030CA
:0E00000000260E0E000181000FC00FE00F4021
:00000001FF
;PIC18F452
;CRC=2FDF  CREATED="26-jul-13 16:43"
