:100000004EEF01F0253264204C5342253264204DDE
:10001000534225326400080E016E180E006E002E49
:10002000FED78B969496180E006E002EFED70936DA
:100030008B98D8B09488D8A09498948682A6FED73E
:10004000012EEBD7180E006E002EFED78B969496DD
:1000500000009488180E006E002EFED7180E006E59
:10006000002EFED7948682A6FED7016A180E006E77
:10007000002EFED782B801808B9694968B98949828
:100080001200EA6A080EE96EEF500DE00A0E016EEA
:10009000006A002EFED7012EFBD75F0E006E002EE9
:1000A000FED7EF2EF3D78AEF01F0080E0A6E00C0DC
:1000B0000BF09488180E006E002EFED7948682A650
:1000C000FED782B8D88082A8D8900136180E006E6C
:1000D000002EFED794968B960A2EEBD79488180E96
:1000E000006E002EFED78B980B50D8A49498000079
:1000F000948682A6FED7180E006E002EFED78B9631
:100100009496180E006E002EFED78B989498BBEF35
:1001100000F0086A9488180E006E002EFED79486B0
:10012000180E006E002EFED78B989498180E006E55
:10013000002EFED78B969496D00E096E6CDF07C00A
:1001400009F069DF9488180E006E002EFED79486A1
:10015000180E006E002EFED782A6FED78B989498BC
:10016000180E006E002EFED78B969496D10E096E57
:1001700052DF006A9AD701C008F094980000948674
:1001800082A6FED7180E006E002EFED700D000000B
:100190009488180E006E002EFED708C001F08FEF75
:1001A00001F00F50016A0E5C03E20EC000F00CD0AB
:1001B000006A080E106E0E3600360F50005CD8B084
:1001C000006E0136102EF7D71200200E09A8300E4F
:1001D0000A6E08C000F008AE08D0001E002A00C059
:1001E00008F02D0E0A6E098E0980015008C00EF02D
:1001F000640E0F6ED6DF00C008F0300E01240B6EC7
:1002000008C00EF00A0E0F6ECCDF300E00240D6E0B
:10021000300E01240C6E0AC000F0300E0B5C04E0BE
:10022000098209BE098412D00AC00BF0200E0A6EA2
:10023000300E0C5C04E0098009BE098207D0D8A406
:10024000098004E10BC00CF0200E0B6E09B405D040
:1002500009B207D009B009D00CD00A509EA8FED729
:10026000AD6E0B509EA8FED7AD6E0C509EA8FED76B
:10027000AD6E0D509EA8FED7AD6E12000900F6CFF0
:1002800008F0F7CF09F0F5509EA8FED7AD6E08C074
:10029000F6FF09C0F7FF072EF1D71200F86AD09ECB
:1002A000EA6AE96A330EAF6EA20EAC6E900EAB6EC8
:1002B000C180C182C184C1969488180E006E002E40
:1002C000FED79486180E006E002EFED78B98949859
:1002D000180E006E002EFED78B969496D00E096EE7
:1002E0009ADE096A98DE096A96DE94980000948680
:1002F00082A6FED7180E006E002EFED700D000009A
:100300009488180E006E002EFED7020E076EFA0EAD
:10031000086EB7D6072EFBD7D00E076EFAD601C0EF
:1003200004F00450F0090F0B056E04500F09700B18
:10033000006E0038066E0F0E061604C008F0110E8F
:10034000096E43DF070EF66E000EF76E040E076EA1
:1003500095DF05C008F0110E096E37DF0E0EF66E40
:10036000000EF76E040E076E89DF06C008F0110E4E
:10037000096E2BDF06500A0DF3500524076E0A0E96
:100380009EA8FED7AD6E07C008F0110E096E1DDFE6
:08039000BCD7000E016E030052
:020000040030CA
:0E00000000260E0E000181000FC00FE00F4021
:00000001FF
;PIC18F452
;CRC=CFBC  CREATED="25-jul-13 16:45"
