:1000000008EF05F0F76A140FF66E000EF7220900EC
:10001000F550120031326800F76A280FF66E000EB4
:10002000F7220900F5501200414D0000F76A3C0F1D
:10003000F66E000EF7220900F5501200504D000038
:10004000F76A500FF66E000EF7220900F550120005
:1000500032346800F76A640FF66E000EF72209006A
:10006000F550120020200000F76A780FF66E000E9F
:10007000F7220900F5501200444F4D00F76A8C0F2B
:10008000F66E000EF7220900F550120053454700A6
:10009000F76AA00FF66E000EF7220900F550120065
:1000A00054455200F76AB40FF66E000EF7220900AD
:1000B000F550120051554100F76AC80FF66E000E58
:1000C000F7220900F550120051554900F76ADC0F7C
:1000D000F66E000EF7220900F55012005345580045
:1000E000F76AF00FF66E000EF7220900F5501200C5
:1000F00053414200F76A040FF66E010EF722090021
:10010000F5501200455252000A257320202020206D
:10011000253032642F253032642F253032640000C0
:10012000EA6A240EE96EEF500EE00C0E016E006AD2
:10013000002EFED7012EFBD7F70E006E002EFED745
:1001400000D0EF2EF2D7120025B002D08C9801D04B
:100150008C88959825B202D08C9A01D08C8A959A79
:1001600025B402D08C9C01D08C8C959C25B602D0F5
:100170008C9E01D08C8E959E96928D8296928D92B9
:100180001200020E245E0BE3EA6A240EE96EEF50C1
:1001900006E0020E006E002EFED7EF2EFAD7DCEF3F
:1001A00000F096908D90225202E18D9001D08D80CA
:1001B0009690640E246EE5D796928D922338246E25
:1001C0000F0E241624C025F0BFDF23500F0B246E22
:1001D000256EBADF010E246EA3DF956A8C6A1200C9
:1001E00096908D9096928D9295988C98959A8C9ADF
:1001F000959C8C9C959E8C9E0F0E246E91DF010E1B
:10020000186E1850030808E3030E256E9DDF050ED7
:10021000246E86DF182AF5D7020E256E95DF226A36
:10022000280E236EBEDF226A0C0E236EBADF226A0E
:10023000010E236EB6DF226A060E236EB2DF050EB4
:10024000246E6EDF12EF05F0080E016E1E0E006EBA
:10025000002EFED78B9694961F0E006E002EFED7B2
:1002600024368B98D8B09488D8A09498948682A687
:10027000FED7012EEBD71E0E006E002EFED78B96FA
:100280009496000094881F0E006E002EFED71F0E5D
:10029000006E002EFED7948682A6FED7016A1F0E3E
:1002A000006E002EFED782B801808B9694968B98B4
:1002B00094981200080E256E00C026F094881F0E38
:1002C000006E002EFED7948682A6FED782B8D88014
:1002D00082A8D89001361E0E006E002EFED794968E
:1002E0008B96252EEBD794881F0E006E002EFED71E
:1002F0008B982650D8A494980000948682A6FED7A6
:100300001E0E006E002EFED78B9694961F0E006E6A
:10031000002EFED78B989498BFEF01F094881E0EA4
:10032000006E002EFED794861F0E006E002EFED7A4
:100330008B9894981E0E006E002EFED78B96949686
:10034000D00E246E81DF22C024F07EDF94881E0E42
:10035000006E002EFED794861F0E006E002EFED774
:1003600082A6FED78B9894981E0E006E002EFED7A4
:100370008B969496D10E246E67DF006A9BD701C0DE
:1003800023F094980000948682A6FED71E0E006E7D
:10039000002EFED700D0000094881E0E006E002EA6
:1003A000FED723C001F0120094881E0E006E002EAE
:1003B000FED794861F0E006E002EFED78B98949861
:1003C0001E0E006E002EFED78B969496D00E246ED5
:1003D0003BDF1BC024F038DF1CC024F035DF9498CD
:1003E0000000948682A6FED71E0E006E002EFED759
:1003F00000D0000094881E0E006E002EFED7120062
:10040000198094881E0E006E002EFED794861F0E53
:10041000006E002EFED78B9894981E0E006E002E54
:10042000FED78B969496D00E246E0EDF0150199055
:1004300001B0198094980000948682A6FED71E0E03
:10044000006E002EFED700D0000094881E0E006EB5
:10045000002EFED719B008D0226A60DF01507F0B52
:100460001A6E1B6A1C6EA0DF000E19B0010E016E21
:1004700017EF05F02050016A1F5C03E21FC000F077
:100480000CD0006A080E216E1F3600362050005C2A
:10049000D8B0006E0136212EF7D712001CC01FF015
:1004A0000A0E206EE7DF01C01EF01E500A0DF35049
:1004B0001C5C1D6E1E38006EF00E001600501D10E4
:1004C000016E1200010E1824E96E000E1920EA6E6A
:1004D000EF507F0B1A6E1C6EE1DF01C01AF01B6A31
:1004E00001C01CF061DF010E246E1ADE020E18241A
:1004F000E96E000E1920EA6EEF507F0B1A6E1C6E2B
:10050000CDDF01C01AF0010E1B6E01C01CF04CDFE4
:10051000010E246E05DE18C0E9FF19C0EAFFEF38AE
:100520001A6E1A361A36C00E1A1618C0E9FF19C00C
:10053000EAFFEF38006E0036E00E001600501A1287
:10054000030E1824E96E000E1920EA6EEF503F0BDF
:100550001B6E1C6EA3DF01501A12020E1B6E1AC016
:100560001CF022DF010E246EDBDD040E1824E96E80
:10057000000E1920EA6EEF50070B1A6E030E1B6E69
:100580001AC01CF011DF010E246ECADD050E1824FE
:10059000E96E000E1920EA6EEF503F0B1A6E1C6ECA
:1005A0007DDF01C01AF0040E1B6E01C01CF0FCDEE2
:1005B000010E246EB5DD060E1824E96E000E19201A
:1005C000EA6EEF501F0B1A6E1C6E68DF01C01AF046
:1005D000050E1B6E01C01CF0E7DE010E246EA0DDCF
:1005E000070E1824E96E000E1920EA6EEFCF1AF0FC
:1005F0001AC01CF053DF01C01AF0060E1B6E01C0BA
:100600001CF0D2DE010E246E8BDD070E1B6E1C6A01
:10061000CBDE34EF05F01D500F0B1E6E1D50700B1E
:10062000006E00381F6E0F0E1F161F500A0DF3507C
:100630001E24016E1200226A71DE01C01CF001C08E
:100640001DF0E9DF0150E8EF03F0010E226E66DED7
:1006500001C01CF001C01DF0DEDF0150F8EF03F017
:1006600028C0E9FF29C0EAFF000E25BC010EEF6E8D
:1006700029C003F028C0E9FF29C0EAFFEF5210E0CB
:100680002550100B006E00382A6E0F0E2A1626C059
:10069000E9FF27C0EAFF000E25BA010EEF6E07D072
:1006A0002550300B006E00382A6E0F0E2A1625508A
:1006B0000F0B2B6E2A500A0DF3502B24016E7FEF87
:1006C00003F0020E226E2ADE01C022F01FC003F0EA
:1006D0001EC0E9FF1FC0EAFFEFCF23F021C003F0E7
:1006E00020C0E9FF21C0EAFFEFCF24F001C025F0D0
:1006F000276A23C026F0296A24C028F0B1D7015008
:1007000015EF04F0030E226E09DE0150070B016E97
:1007100025EF04F01D500F0B1F6E1D50300B006EA7
:1007200000381E6E0F0E1E161E500A0DF3501F24A9
:10073000016EA3EF03F0040E226EF0DD01C01CF089
:1007400001C01DF0E7D7015035EF04F01D500F0B2D
:100750001E6E1D50100B006E00381F6E0F0E1F1600
:100760001F500A0DF3501E24016EBFEF03F0050E5B
:10077000226ED4DD01C01CF001C01DF0E7D701508E
:1007800045EF04F01D500F0B1E6E1D50F00B006E58
:1007900000381F6E0F0E1F161F500A0DF3501E2437
:1007A000016EDBEF03F0060E226EB8DD01C01CF017
:1007B00001C01DF0E7D7015055EF04F0010E1824D9
:1007C000016E000E1920036E01C01AF01B6E33D7A4
:1007D0001BC0EAFF1AC0E9FF01C0EFFF020E182498
:1007E000016E000E1920036E01C01AF01B6E2DD78A
:1007F0001BC0EAFF1AC0E9FF01C0EFFF030E182477
:10080000016E000E1920036E01C01AF01B6E000E5F
:1008100018B0010E1C6E000E18B2010E1D6E1F6A7C
:100820001CC01EF0216A206E4CD71BC0EAFF1AC004
:10083000E9FF01C0EFFF040E1824016E000E19201D
:10084000036E01C01AF01B6E5DD71BC0EAFF1AC011
:10085000E9FF01C0EFFF050E1824016E000E1920FC
:10086000036E01C01AF01B6E66D71BC0EAFF1AC0E8
:10087000E9FF01C0EFFF060E1824016E000E1920DB
:10088000036E01C01AF01B6E72D71BC0EAFF1AC0BC
:10089000E9FF01C0EFFF070E1824016E000E1920BA
:1008A000036E01C01AF01B6E7ED71BC0EAFF1AC090
:1008B000E9FF01C0EFFF44EF05F0202C01D003D089
:1008C000C00E216E02D0800E216E010E1F5C21260B
:1008D000226A21C023F065DC90EF04F01E500C0A60
:1008E00007E0060A0DE0070A0BE0050A0FE013D047
:1008F000226A010E236E55DC020E246E11DC10D02C
:10090000010E1F6E020E206ED8D70AD0226A100E7A
:10091000236E47DC05D0010E226E1EC023F041DCA1
:100920001200EF520FE0EACF19F0E9CF18F0EFCF45
:100930001EF0D4DF19C0EAFF18C0E9FFE92AD8B4D5
:10094000EA2AEFD71200200E19A8300E1A6E18C02E
:1009500000F018AE08D0001E002A00C018F02D0EBE
:100960001A6E198E1980015018C01FF0640E206E87
:1009700081DD00C018F0300E01241B6E18C01FF07E
:100980000A0E206E77DD300E00241D6E300E01241D
:100990001C6E1AC000F0300E1B5C04E0198219BEF8
:1009A000198412D019B410D01AC01BF019B204D097
:1009B000300E1C5C04E0198019BE198205D0D8A441
:1009C0001980D8B41BC01CF019B405D019B206D0D8
:1009D00019B007D009D01AC01EF080DF1BC01EF06E
:1009E0007DDF1CC01EF07ADF1DC01EF077DF120015
:1009F0000900F6CF19F0F7CF1AF0F5CF1EF06EDF31
:100A000019C0F6FF1AC0F7FF182EF2D73CEF06F018
:100A1000F86AD09EEA6AE96AC180C182C184C1963F
:100A2000F0EF00F0640E246E90EC00F0E9D49380B7
:100A300081B022D0640E246E90EC00F0938081B0DF
:100A40001BD0056A2F0E066E0E0E076E020E086E84
:100A50001D0E096E070E0A6E0D0E0B6E04920490A9
:100A6000196A040E186E2ED5020E186EFA0E246E38
:100A700090EC00F0182EFAD7640E246E90EC00F083
:100A8000196A040E186E9AD604A228D0EA6A0C0ECF
:100A9000E96E000E02EC00F00A000900F550EE6E5F
:100AA0000009FBE104A00DD0EA6A100EE96E000E09
:100AB0000CEC00F00A000900F550EE6E0009FBE1B5
:100AC0000CD0EA6A100EE96E000E16EC00F00A0077
:100AD0000900F550EE6E0009FBE118D0EA6A0C0E31
:100AE000E96E000E20EC00F00A000900F550EE6EF1
:100AF0000009FBE1EA6A100EE96E000E2AEC00F034
:100B00000A000900F550EE6E0009FBE1126A0F6A57
:100B10000850010A0DE0030A18E0010A23E0070A61
:100B20002EE0010A39E0030A44E0010A4FE05BD0FD
:100B3000EA6A130EE96E000E34EC00F00A000900B8
:100B4000F550EE6E0009FBE15AD0EA6A130EE96E29
:100B5000000E3EEC00F00A000900F550EE6E0009B0
:100B6000FBE14DD0EA6A130EE96E000E48EC00F08E
:100B70000A000900F550EE6E0009FBE140D0EA6A78
:100B8000130EE96E000E52EC00F00A000900F55059
:100B9000EE6E0009FBE133D0EA6A130EE96E000E37
:100BA0005CEC00F00A000900F550EE6E0009FBE174
:100BB00026D0EA6A130EE96E000E66EC00F00A0019
:100BC0000900F550EE6E0009FBE119D0EA6A130E38
:100BD000E96E000E70EC00F00A000900F550EE6EB0
:100BE0000009FBE10CD0EA6A130EE96E000E7AEC04
:100BF00000F00A000900F550EE6E0009FBE1166AEC
:100C00000550175C4EE005C017F00C0E1E6E66DE38
:100C1000EA6A0C0EE96E85DE200E1E6E5FDEEA6A61
:100C2000100EE96E7EDE200E1E6E58DE200E1E6E49
:100C300055DE07C018F0010E196E85DE3A0E1E6EE5
:100C40004DDE06C018F0010E196E7DDE3A0E1E6EE6
:100C500045DE05C018F0010E196E75DE0A0E1E6E17
:100C60003DDEEA6A130EE96E5CDE0B0EF66E010ED7
:100C7000F76E050E186EBCD609C018F0010E196E7D
:100C800062DE2F0E1E6E2ADE0AC018F0010E196EEB
:100C90005ADE2F0E1E6E22DE0BC018F0010E196EEA
:060CA00052DEC5D6030080
:020000040030CA
:0E00000000260E0E000181000FC00FE00F4021
:00000001FF
;PIC18F452
;CRC=DEA9  CREATED="29-jul-13 16:22"
