:1000000070EF04F0F76A140FF66E000EF722090085
:10001000F550120031326800F76A280FF66E000EB4
:10002000F7220900F5501200414D0000F76A3C0F1D
:10003000F66E000EF7220900F5501200504D000038
:10004000F76A500FF66E000EF7220900F550120005
:1000500032346800F76A640FF66E000EF72209006A
:10006000F550120020200000F76A780FF66E000E9F
:10007000F7220900F5501200444F4D00F76A8C0F2B
:10008000F66E000EF7220900F550120053454700A6
:10009000F76AA00FF66E000EF7220900F550120065
:1000A00054455200F76AB40FF66E000EF7220900AD
:1000B000F550120051554100F76AC80FF66E000E58
:1000C000F7220900F550120051554900F76ADC0F7C
:1000D000F66E000EF7220900F55012005345580045
:1000E000F76AF00FF66E000EF7220900F5501200C5
:1000F00053414200F76A040FF66E010EF722090021
:10010000F5501200455252000C48656C6C6F0000AF
:100110000A25732020202020253032642F253032FC
:10012000642F253032640000EA6A1A0EE96EEF503F
:100130000EE0040E016E006A002EFED7012EFBD7E2
:10014000DC0E006E002EFED70000EF2EF2D712005C
:10015000080E016E0A0E006E002EFED78B96949646
:100160000A0E006E002EFED724368B98D8B09488E5
:10017000D8A09498948682A6FED7012EEBD70A0EBB
:10018000006E002EFED78B969496000094880A0E7F
:10019000006E002EFED70A0E006E002EFED794864B
:1001A00082A6FED7016A0A0E006E002EFED782B824
:1001B00001808B9694968B9894981200080E256E69
:1001C00000C026F094880A0E006E002EFED794869A
:1001D00082A6FED782B8D88082A8D89001360A0EAF
:1001E000006E002EFED794968B96252EEBD7948822
:1001F0000A0E006E002EFED78B982650D8A4949835
:100200000000948682A6FED70A0E006E002EFED74E
:100210008B9694960A0E006E002EFED78B989498BB
:1002200043EF01F094880A0E006E002EFED79486EC
:100230000A0E006E002EFED78B9894980A0E006E60
:10024000002EFED78B969496D00E246E81DF22C0AE
:1002500024F07EDF94880A0E006E002EFED794866E
:100260000A0E006E002EFED782A6FED78B989498B9
:100270000A0E006E002EFED78B969496D10E246E39
:1002800067DF006A9BD701C023F094980000948632
:1002900082A6FED70A0E006E002EFED700D0000008
:1002A00094880A0E006E002EFED723C001F01200C3
:1002B00094880A0E006E002EFED794860A0E006EF9
:1002C000002EFED78B9894980A0E006E002EFED753
:1002D0008B969496D00E246E3BDF1BC024F038DF43
:1002E0001CC024F035DF94980000948682A6FED7C7
:1002F0000A0E006E002EFED700D0000094880A0E71
:10030000006E002EFED71200198094880A0E006E2F
:10031000002EFED794860A0E006E002EFED78B9814
:1003200094980A0E006E002EFED78B969496D00EEF
:10033000246E0EDF0150199001B0198094980000CE
:10034000948682A6FED70A0E006E002EFED700D03D
:10035000000094880A0E006E002EFED719B008D057
:10036000226A60DF01507F0B1A6E1B6A1C6EA0DFD1
:10037000000E19B0010E016E8BEF04F00900F5526A
:100380000DE0F6CF18F0F7CF19F0F5509EA8FED784
:10039000AD6E18C0F6FF19C0F7FFF0D797EF04F065
:1003A0002050016A1F5C03E21FC000F00CD0006AFD
:1003B000080E216E1F3600362050005CD8B0006E4B
:1003C0000136212EF7D712001CC01FF00A0E206E36
:1003D000E7DF01C01EF01E500A0DF3501C5C1D6EBD
:1003E0001E38006EF00E001600501D10016E120037
:1003F000010E1824E96E000E1920EA6EEF507F0BF3
:100400001A6E1C6EE1DF01C01AF01B6A01C01CF0FD
:100410004FDF010E1A6E88DE020E1824E96E000E00
:100420001920EA6EEF507F0B1A6E1C6ECDDF01C0F3
:100430001AF0010E1B6E01C01CF03ADF010E1A6E9D
:1004400073DE18C0E9FF19C0EAFFEF381A6E1A36DA
:100450001A36C00E1A1618C0E9FF19C0EAFFEF38A5
:10046000006E0036E00E001600501A12030E18241B
:10047000E96E000E1920EA6EEF503F0B1B6E1C6EEA
:10048000A3DF01501A12020E1B6E1AC01CF010DFFF
:10049000010E1A6E49DE040E1824E96E000E1920B2
:1004A000EA6EEF50070B1A6E030E1B6E1AC01CF09B
:1004B000FFDE010E1A6E38DE050E1824E96E000EFE
:1004C0001920EA6EEF503F0B1A6E1C6E7DDF01C0E3
:1004D0001AF0040E1B6E01C01CF0EADE010E1A6E4B
:1004E00023DE060E1824E96E000E1920EA6EEF5086
:1004F0001F0B1A6E1C6E68DF01C01AF0050E1B6E12
:1005000001C01CF0D5DE010E1A6E0EDE070E182497
:10051000E96E000E1920EA6EEFCF1AF01AC01CF037
:1005200053DF01C01AF0060E1B6E01C01CF0C0DEC6
:10053000010E1A6EF9DD070E1B6E1C6AB9DEB4EFF0
:1005400004F01D500F0B1E6E1D50700B006E003816
:100550001F6E0F0E1F161F500A0DF3501E24016E42
:100560001200226A5FDE01C01CF001C01DF0E9DF4D
:1005700001507EEF03F0010E226E54DE01C01CF02C
:1005800001C01DF0DEDF01508EEF03F028C0E9FF4F
:1005900029C0EAFF000E25BC010EEF6E29C003F052
:1005A00028C0E9FF29C0EAFFEF5210E02550100BE8
:1005B000006E00382A6E0F0E2A1626C0E9FF27C0EB
:1005C000EAFF000E25BA010EEF6E07D02550300B62
:1005D000006E00382A6E0F0E2A1625500F0B2B6E58
:1005E0002A500A0DF3502B24016E15EF03F0020E72
:1005F000226E18DE01C022F01FC003F01EC0E9FF0A
:100600001FC0EAFFEFCF23F021C003F020C0E9FFB5
:1006100021C0EAFFEFCF24F001C025F0276A23C0F4
:1006200026F0296A24C028F0B1D70150ABEF03F0BF
:10063000030E226EF7DD0150070B016EBBEF03F0D6
:100640001D500F0B1F6E1D50300B006E00381E6EBC
:100650000F0E1E161E500A0DF3501F24016E39EFA7
:1006600003F0040E226EDEDD01C01CF001C01DF09F
:10067000E7D70150CBEF03F01D500F0B1E6E1D503E
:10068000100B006E00381F6E0F0E1F161F500A0D44
:10069000F3501E24016E55EF03F0050E226EC2DDED
:1006A00001C01CF001C01DF0E7D70150DBEF03F0E3
:1006B0001D500F0B1E6E1D50F00B006E00381F6E8C
:1006C0000F0E1F161F500A0DF3501E24016E71EFFE
:1006D00003F0060E226EA6DD01C01CF001C01DF065
:1006E000E7D70150EBEF03F0010E1824016E000E66
:1006F0001920036E01C01AF01B6E33D71BC0EAFF2E
:100700001AC0E9FF01C0EFFF020E1824016E000EAF
:100710001920036E01C01AF01B6E2DD71BC0EAFF13
:100720001AC0E9FF01C0EFFF030E1824016E000E8E
:100730001920036E01C01AF01B6E000E18B0010ED6
:100740001C6E000E18B2010E1D6E1F6A1CC01EF03A
:10075000216A206E4CD71BC0EAFF1AC0E9FF01C016
:10076000EFFF040E1824016E000E1920036E01C065
:100770001AF01B6E5DD71BC0EAFF1AC0E9FF01C06B
:10078000EFFF050E1824016E000E1920036E01C044
:100790001AF01B6E66D71BC0EAFF1AC0E9FF01C042
:1007A000EFFF060E1824016E000E1920036E01C023
:1007B0001AF01B6E72D71BC0EAFF1AC0E9FF01C016
:1007C000EFFF070E1824016E000E1920036E01C002
:1007D0001AF01B6E7ED71BC0EAFF1AC0E9FF01C0EA
:1007E000EFFFC4EF04F0EF5210E0EACF19F0E9CFC9
:1007F00018F0EF509EA8FED7AD6E19C0EAFF18C0E2
:10080000E9FFE92AD8B4EA2AEED71200200E19A887
:10081000300E1A6E18C000F018AE08D0001E002A64
:1008200000C018F02D0E1A6E198E1980015018C0D4
:100830001FF0640E206EB4DD00C018F0300E0124ED
:100840001B6E18C01FF00A0E206EAADD300E0024A9
:100850001D6E300E01241C6E1AC000F0300E1B5CA1
:1008600004E0198219BE198412D019B410D01AC02C
:100870001BF019B204D0300E1C5C04E0198019BEC4
:10088000198205D0D8A41980D8B41BC01CF019B4A3
:1008900005D019B207D019B009D00CD01A509EA8B3
:1008A000FED7AD6E1B509EA8FED7AD6E1C509EA805
:1008B000FED7AD6E1D509EA8FED7AD6E120009008A
:1008C000F6CF19F0F7CF1AF0F5509EA8FED7AD6E0F
:1008D00019C0F6FF1AC0F7FF182EF1D705EF06F082
:1008E000F86AD09EB886860EAF6E010EB06EA60E68
:1008F000AC6E900EAB6EC150F00BC16E000E0F01CE
:10090000386F396F3A6F776A786A796A640E1A6E4F
:1009100000010ADCF9D4040E186EFA0E1A6E04DC1B
:10092000182EFBD7080EF66E010EF76E27D59380B2
:1009300081B022D0640E1A6E94EC00F0938081B0E6
:100940001BD0056A2C0E066E100E076E020E086E86
:10095000180E096E0B0E0A6E0E0E0B6E04920490AA
:10096000196A040E186E44D5020E186EFA0E1A6E2D
:1009700094EC00F0182EFAD7640E1A6E94EC00F086
:10098000196A040E186EB0D604A237D0EA6A0C0EAB
:10099000E96EF2CF18F0F29E000E02EC00F00A00B1
:1009A0000900F550EE6E0009FBE118BEF28E04A0BE
:1009B00012D0EA6A100EE96EF2CF18F0F29E000E25
:1009C0000CEC00F00A000900F550EE6E0009FBE1A6
:1009D00018BEF28E11D0EA6A100EE96EF2CF18F04E
:1009E000F29E000E16EC00F00A000900F550EE6EC3
:1009F0000009FBE118BEF28E22D0EA6A0C0EE96E05
:100A0000F2CF18F0F29E000E20EC00F00A00090070
:100A1000F550EE6E0009FBE118BEF28EEA6A100E88
:100A2000E96EF2CF18F0F29E000E2AEC00F00A00F8
:100A30000900F550EE6E0009FBE118BEF28E126A55
:100A40000F6A0850010A0EE0030A1EE0010A2EE0B8
:100A5000070A3EE0010A4EE0030A5EE0010AD8B44C
:100A60006DD07ED0EA6A130EE96EF2CF18F0F29ED6
:100A7000000E34EC00F00A000900F550EE6E00099B
:100A8000FBE118BEF28E7DD0EA6A130EE96EF2CF5A
:100A900018F0F29E000E3EEC00F00A000900F5503E
:100AA000EE6E0009FBE118BEF28E6BD0EA6A130EFF
:100AB000E96EF2CF18F0F29E000E48EC00F00A004A
:100AC0000900F550EE6E0009FBE118BEF28E59D018
:100AD000EA6A130EE96EF2CF18F0F29E000E52ECA5
:100AE00000F00A000900F550EE6E0009FBE118BEA7
:100AF000F28E47D0EA6A130EE96EF2CF18F0F29E3A
:100B0000000E5CEC00F00A000900F550EE6E0009E2
:100B1000FBE118BEF28E35D0EA6A130EE96EF2CF11
:100B200018F0F29E000E66EC00F00A000900F55085
:100B3000EE6E0009FBE118BEF28E23D0EA6A130EB6
:100B4000E96EF2CF18F0F29E000E70EC00F00A0091
:100B50000900F550EE6E0009FBE118BEF28E11D0CF
:100B6000EA6A130EE96EF2CF18F0F29E000E7AECEC
:100B700000F00A000900F550EE6E0009FBE118BE16
:100B8000F28E166A0550175C57E005C017F00C0E80
:100B90009EA8FED7AD6EEA6A0C0EE96E24DE200E2A
:100BA0009EA8FED7AD6EEA6A100EE96E1CDE200E1E
:100BB0009EA8FED7AD6E200E9EA8FED7AD6E07C0D4
:100BC00018F0010E196E22DE3A0E9EA8FED7AD6E09
:100BD00006C018F0010E196E19DE3A0E9EA8FED757
:100BE000AD6E05C018F0010E196E10DE0A0E9EA83B
:100BF000FED7AD6EEA6A130EE96EF5DD130EF66EE2
:100C0000010EF76E050E186E5AD609C018F0010EC7
:100C1000196EFCDD2F0E9EA8FED7AD6E0AC018F02F
:100C2000010E196EF3DD2F0E9EA8FED7AD6E0BC020
:100C300018F0010E196EEADD7AD6000E016E03007F
:020000040030CA
:0E00000000E31E3C00BF81000FC00FE00F4068
:00000001FF
;PIC18F25K22
;CRC=63F4  CREATED="24-nov-14 16:43"
