:100000000EEF02F0080E016E0A0E006E002EFED7F3
:100010008B9694960B0E006E002EFED721368B9891
:10002000D8B09488D8A09498948682A6FED7012E42
:10003000EBD70A0E006E002EFED78B96949600002A
:1000400094880B0E006E002EFED70B0E006E002E55
:10005000FED7948682A6FED7016A0B0E006E002E94
:10006000FED782B801808B9694968B989498120054
:100070001D50016A1C5C03E21CC000F00CD0006A39
:10008000080E1E6E1C3600361D50005CD8B0006E87
:1000900001361E2EF7D712001AC01CF00A0E1D6E74
:1000A000E7DF0150100DF3CF1BF01AC01CF00A0E51
:1000B0001D6EDEDF00501B24016E120094880A0EB4
:1000C000006E002EFED794860B0E006E002EFED71B
:1000D0008B9894980A0E006E002EFED78B969496FD
:1000E000D00E216E8FDF216A8DDF13C01AF0D4DFAE
:1000F00001C01AF001C021F085DF14C01AF0CCDF76
:1001000001C01AF001C021F07DDF15C01AF0C4DF74
:1001100001C01AF001C021F075DF16C01AF0BCDF73
:1001200001C01AF001C021F06DDF17C01AF0B4DF72
:1001300001C01AF001C021F065DF18C01AF0ACDF71
:1001400001C01AF001C021F05DDF19C01AF0A4DF70
:1001500001C01AF001C021F055DF94980000948688
:1001600082A6FED70A0E006E002EFED700D0000039
:1001700094880A0E006E002EFED735EF02F0080EAE
:10018000246E00C025F094880B0E006E002EFED762
:10019000948682A6FED782B8D88082A8D8900136ED
:1001A0000A0E006E002EFED794968B96242EEBD767
:1001B00094880B0E006E002EFED78B982550D8A485
:1001C00094980000948682A6FED70A0E006E002E38
:1001D000FED78B9694960B0E006E002EFED78B9852
:1001E0009498120094880A0E006E002EFED7948612
:1001F0000B0E006E002EFED78B9894980A0E006EA0
:10020000002EFED78B969496D00E216EFBDE216ACF
:10021000F9DE94880A0E006E002EFED794860B0E2F
:10022000006E002EFED782A6FED78B9894980A0EF9
:10023000006E002EFED78B969496D10E216EE2DED4
:1002400014C003F013C0E9FF14C0EAFF010E006EF2
:1002500096DF01C0EFFF16C003F015C0E9FF16C01E
:10026000EAFF010E006E8BDF01C0EFFF18C003F044
:1002700017C0E9FF18C0EAFF010E006E80DF01C061
:10028000EFFF1AC003F019C0E9FF1AC0EAFF010E20
:10029000006E75DF01C0EFFF1CC003F01BC0E9FF5B
:1002A0001CC0EAFF010E006E6ADF01C0EFFF1EC036
:1002B00003F01DC0E9FF1EC0EAFF010E006E5FDF04
:1002C00001C0EFFF20C003F01FC0E9FF20C0EAFF1C
:1002D000006A55DF01C0EFFF94980000948682A663
:1002E000FED70A0E006E002EFED700D000009488C4
:1002F0000A0E006E002EFED74BEF02F0949C8B9CF2
:10030000080E016E00D00000018E0ED0019E193241
:10031000D8B08B8CD8A08B9C018C06D0019C012E70
:10032000F6D700D000008B8C010E006EE96AE92E32
:10033000FED7002EFBD70C0EE96EE92EFED700D0BB
:1003400001BEE4D701BCEAD71200200E14A8300E7B
:10035000156E13C000F013AE08D0001E002A00C0B6
:1003600013F02D0E156E148E1480015013C01CF066
:10037000640E1D6E7DDE00C013F0300E0124166E7B
:1003800013C01CF00A0E1D6E73DE300E0024186EB2
:10039000300E0124176E15C000F0300E165C04E01C
:1003A000148214BE148412D015C016F0200E156EDF
:1003B000300E175C04E0148014BE148207D0D8A459
:1003C000148004E116C017F0200E166E14B405D088
:1003D00014B206D014B007D009D015C019F08EDFC2
:1003E00016C019F08BDF17C019F088DF18C019F09C
:1003F00085DF1200EA6A140EE96EEF500DE00A0E76
:10040000016E006A002EFED7012EFBD75F0E006E34
:10041000002EFED7EF2EF3D765EF02F0F86AD09EDC
:10042000EA6AE96A949C8B8CC180C182C184C196BE
:100430002D0E056E030E066E070E076E050E086E76
:10044000110E096E040E0A6E080E0B6E05C013F035
:1004500006C014F007C015F008C016F009C017F068
:100460000AC018F00BC019F029D6146A0C0E136ECE
:10047000166A0D0E156E186A0E0E176E1A6A0F0E9A
:10048000196E1C6A100E1B6E1E6A110E1D6E206AFC
:10049000120E1F6EA7D60EC013F0110E146E55DF8C
:1004A0003A0E196E2BDF0DC013F0110E146E4DDFD6
:1004B0003A0E196E23DF0CC013F0110E146E45DFD7
:1004C000040E136EFA0E146E95D7132EFBD7CDD7EC
:0604D000000E016E0300A6
:020000040030CA
:0E00000000260E0E000181000FC00FE00F4021
:00000001FF
;PIC18F252
;CRC=F853  CREATED="26-jul-13 08:56"
