:10000000FFEF04F0F76A140FF66E000EF7220900F6
:10001000F550120031326800F76A280FF66E000EB4
:10002000F7220900F5501200414D0000F76A3C0F1D
:10003000F66E000EF7220900F5501200504D000038
:10004000F76A500FF66E000EF7220900F550120005
:1000500032346800F76A640FF66E000EF72209006A
:10006000F550120020200000F76A780FF66E000E9F
:10007000F7220900F5501200444F4D00F76A8C0F2B
:10008000F66E000EF7220900F550120053454700A6
:10009000F76AA00FF66E000EF7220900F550120065
:1000A00054455200F76AB40FF66E000EF7220900AD
:1000B000F550120051554100F76AC80FF66E000E58
:1000C000F7220900F550120051554900F76ADC0F7C
:1000D000F66E000EF7220900F55012005345580045
:1000E000F76AF00FF66E000EF7220900F5501200C5
:1000F00053414200F76A040FF66E010EF722090021
:10010000F55012004552520050726F626C656D617D
:1001100000000A25732020202020253032642F255E
:100120003032642F253032640000EA6A230EE96E13
:10013000EF500EE00C0E016E006A002EFED7012E6D
:10014000FBD7F70E006E002EFED700D0EF2EF2D7B1
:10015000120024B002D08C9801D08C88959824B2DB
:1001600002D08C9A01D08C8A959A24B402D08C9CAF
:1001700001D08C8C959C24B602D08C9E01D08C8EA4
:10018000959E96928D8296928D921200020E235E1B
:100190000BE3EA6A230EE96EEF5006E0020E006EF2
:1001A000002EFED7EF2EFAD7E1EF00F096908D905B
:1001B000215202E18D9001D08D809690640E236EC5
:1001C000E5D796928D922238236E0F0E231623C008
:1001D00024F0BFDF22500F0B236E246EBADF010E16
:1001E000236EA3DF120096908D9096928D92959833
:1001F0008C98959A8C9A959C8C9C959E8C9E0F0EB3
:10020000236E93DF010E176E1750030808E3030EE9
:10021000246E9FDF050E236E88DF172AF5D7020EA6
:10022000246E97DF216A280E226EC0DF216A0C0E31
:10023000226EBCDF216A010E226EB8DF216A060E33
:10024000226EB4DF050E236E70DF0FEF05F0080E8F
:10025000016E1E0E006E002EFED78B9694961F0E1A
:10026000006E002EFED71C368B98D8B09488D8A08C
:100270009498948682A6FED7012EEBD71E0E006EB0
:10028000002EFED78B969496000094881F0E006E69
:10029000002EFED71F0E006E002EFED7948682A67B
:1002A000FED7016A1F0E006E002EFED782B80180B5
:1002B0008B9694968B9894981200080E1D6E00C031
:1002C0001EF094881F0E006E002EFED7948682A624
:1002D000FED782B8D88082A8D89001361E0E006E54
:1002E000002EFED794968B961D2EEBD794881F0E6A
:1002F000006E002EFED78B981E50D8A49498000054
:10030000948682A6FED71E0E006E002EFED78B9618
:1003100094961F0E006E002EFED78B9894981200B4
:1003200094881E0E006E002EFED794861F0E006E5F
:10033000002EFED78B9894981E0E006E002EFED7CE
:100340008B969496D00E1C6E82DF19C01CF07FDF56
:1003500094881E0E006E002EFED794861F0E006E2F
:10036000002EFED782A6FED78B9894981E0E006EA4
:10037000002EFED78B969496D10E1C6E68DF006A15
:100380009CDF01C01AF094980000948682A6FED7E4
:100390001E0E006E002EFED700D0000094881E0EA8
:1003A000006E002EFED71AC001F032EF02F09488E2
:1003B0001E0E006E002EFED794861F0E006E002EBD
:1003C000FED78B9894981E0E006E002EFED78B964B
:1003D0009496D00E1C6E3BDF1AC01CF038DF1BC099
:1003E0001CF035DF94980000948682A6FED71E0E7E
:1003F000006E002EFED700D0000094881E0E006E06
:10040000002EFED738EF02F0188094881E0E006E82
:10041000002EFED794861F0E006E002EFED78B98FE
:1004200094981E0E006E002EFED78B969496D00EDA
:100430001C6E0DDF0150189001B0188094980000D8
:10044000948682A6FED71E0E006E002EFED700D028
:10045000000094881E0E006E002EFED718B008D043
:10046000196A5ED701507F0B196E1A6A1B6E9FD7EF
:10047000000E18B0010E016E14EF05F00900F552E0
:100480000DE0F6CF17F0F7CF18F0F5509EA8FED785
:10049000AD6E17C0F6FF18C0F7FFF0D71BEF05F0E1
:1004A00094881E0E006E002EFED794861F0E006EDE
:1004B000002EFED78B9894981E0E006E002EFED74D
:1004C0008B969496D00E1C6EC2DE1C6AC0DE010EA6
:1004D0001724E96E000E1820EA6EEFCF19F019C04C
:1004E0001CF0B5DE030E1724E96E000E1820EA6E2C
:1004F000EFCF19F019C01CF0AADE040E1724E96E24
:10050000000E1820EA6EEFCF19F019C01CF09FDE24
:10051000050E1724E96E000E1820EA6EEFCF19F0D1
:1005200019C01CF094DE060E1724E96E000E182088
:10053000EA6EEFCF19F019C01CF089DE070E172400
:10054000E96E000E1820EA6EEFCF19F019C01CF00A
:100550007EDE1C6A7CDE94980000948682A6FED71C
:100560001E0E006E002EFED700D0000094881E0ED6
:10057000006E002EFED736EF05F01D500F0B1E6EDD
:100580001D50700B006E00381F6E0F0E1F161F508F
:100590000A0DF3501E24016E120022C0E9FF23C091
:1005A000EAFF000E1FBC010EEF6E23C003F022C055
:1005B000E9FF23C0EAFFEF5210E01F50100B006E5E
:1005C0000038246E0F0E241620C0E9FF21C0EAFF78
:1005D000000E1FBA010EEF6E07D01F50300B006ED9
:1005E0000038246E0F0E24161F500F0B256E24505A
:1005F0000A0DF3502524016EC1EF03F01D38006E83
:100600000F0E001600500A0DF3CF1EF01D500F0BF9
:100610001E24016ED8EF03F01D500F0B1F6E1D50EE
:10062000300B006E00381E6E0F0E1E161E500A0D87
:10063000F3501F24016EFBEF03F01D500F0B1E6ED5
:100640001D50100B006E00381F6E0F0E1F161F502E
:100650000A0DF3501E24016E12EF04F01D500F0B13
:100660001E6E1D50F00B006E00381F6E0F0E1F1611
:100670001F500A0DF3501E24016E28EF04F09488D9
:100680001E0E006E002EFED794861F0E006E002EEA
:10069000FED78B9894981E0E006E002EFED78B9678
:1006A0009496D00E1C6ED3DD1C6AD1DD94881E0E8C
:1006B000006E002EFED794861F0E006E002EFED711
:1006C00082A6FED78B9894981E0E006E002EFED741
:1006D0008B969496D10E1C6EBADD010E1724016E16
:1006E000000E1820036E01C01AF01B6E010E006E82
:1006F000E4DD01C01CF001C01DF03FDF1BC0EAFFBC
:100700001AC0E9FF01C0EFFF020E1724016E000EB0
:100710001820036E01C01AF01B6E010E006ECDDDB5
:1007200001C01CF001C01DF028DF1BC0EAFF1AC089
:10073000E9FF01C0EFFF030E1724016E000E182021
:10074000036E01C01AF01B6E010E006EB6DD01C013
:100750001CF017C0E9FF18C0EAFF000EEFB0010E51
:100760001D6E17C0E9FF18C0EAFF000EEFB0010EC2
:100770001E6E01C01FF0216A1DC020F0236A226E88
:100780000CD71BC0EAFF1AC0E9FF01C0EFFF030E40
:100790001724016E000E1820036E01C01AF01B6EA4
:1007A000010E006E8ADD0150630B1C6E1D6E26D794
:1007B0001BC0EAFF1AC0E9FF01C0EFFF040E1724B7
:1007C000E96E000E1820EA6E010E006E76DD015013
:1007D000070BEF6E050E1724016E000E1820036E36
:1007E00001C01AF01B6E010E006E67DD01C01CF027
:1007F00001C01DF011D71BC0EAFF1AC0E9FF01C0FC
:10080000EFFF060E1724016E000E1820036E01C0C4
:100810001AF01B6E010E006E50DD01C01CF001C00D
:100820001DF00BD71BC0EAFF1AC0E9FF01C0EFFFA4
:10083000070E1724016E000E1820036E01C01AF077
:100840001B6E006A3ADD01C01CF001C01DF006D726
:100850001BC0EAFF1AC0E9FF01C0EFFF9498000037
:10086000948682A6FED71E0E006E002EFED700D004
:10087000000094881E0E006E002EFED742EF05F099
:100880001F2C01D003D0C00E206E02D0800E206E2F
:10089000010E1E5C2026216A20C022F087DC73EF47
:1008A00004F01D500C0A07E0060A0DE0070A0BE0F1
:1008B000050A0FE013D0216A010E226E77DC020ECA
:1008C000236E33DC10D0010E1E6E020E1F6ED8D7C1
:1008D0000AD0216A100E226E69DC05D0010E216E4D
:1008E0001DC022F063DC1200EF520FE0EACF18F0D7
:1008F000E9CF17F0EFCF1DF0D4DF18C0EAFF17C023
:10090000E9FFE92AD8B4EA2AEFD712001E50016A9B
:100910001D5C03E21DC000F00CD0006A080E1F6EC3
:100920001D3600361E50005CD8B0006E01361F2EFA
:10093000F7D71200200E18A8300E196E17C000F05D
:1009400017AE08D0001E002A00C017F02D0E196E39
:10095000188E1880015017C01DF0640E1E6ED6DF71
:1009600000C017F0300E01241A6E17C01DF00A0ED9
:100970001E6ECCDF300E00241C6E300E01241B6E68
:1009800019C000F0300E1A5C04E0188218BE1884FA
:1009900012D018B410D019C01AF018B204D0300E0A
:1009A0001B5C04E0188018BE188205D0D8A41880FB
:1009B000D8B41AC01BF018B405D018B206D018B0BD
:1009C00007D009D019C01DF06CDF1AC01DF069DF17
:1009D0001BC01DF066DF1CC01DF063DF12000900A4
:1009E000F6CF18F0F7CF19F0F5CF1DF05ADF18C089
:1009F000F6FF19C0F7FF172EF2D735EF06F0F86AA9
:100A0000D09EEA6AE96A400EAF6EA20EAC6E900EFE
:100A1000AB6EC180C182C184C196F3EF00F0640E59
:100A2000236E95EC00F0F0D4015205E0080EF66E4E
:100A3000010EF76E23D5938081B018D0640E236E1B
:100A400095EC00F0938081B011D0049204900D0ECB
:100A50000B6E1D0E096E010E086E070E076E1A0E44
:100A6000066E056A186A040E176E1AD5020E176E06
:100A7000FA0E236E95EC00F0172EFAD7186A040EC2
:100A8000176EFDD504A228D0EA6A0C0EE96E000E9E
:100A900002EC00F00A000900F550EE6E0009FBE1DF
:100AA00004A00DD0EA6A100EE96E000E0CEC00F006
:100AB0000A000900F550EE6E0009FBE10CD0EA6A6D
:100AC000100EE96E000E16EC00F00A000900F55059
:100AD000EE6E0009FBE118D0EA6A0C0EE96E000E1A
:100AE00020EC00F00A000900F550EE6E0009FBE171
:100AF000EA6A100EE96E000E2AEC00F00A00090006
:100B0000F550EE6E0009FBE1126A0F6A010E085CF7
:100B10000DE0010A18E0030A23E0010A2EE0070AAB
:100B200039E0010A44E0030A4FE05BD0EA6A130EA1
:100B3000E96E000E34EC00F00A000900F550EE6E8C
:100B40000009FBE15AD0EA6A130EE96E000E3EEC92
:100B500000F00A000900F550EE6E0009FBE14DD0EF
:100B6000EA6A130EE96E000E48EC00F00A00090074
:100B7000F550EE6E0009FBE140D0EA6A130EE96E13
:100B8000000E52EC00F00A000900F550EE6E00096C
:100B9000FBE133D0EA6A130EE96E000E5CEC00F064
:100BA0000A000900F550EE6E0009FBE126D0EA6A62
:100BB000130EE96E000E66EC00F00A000900F55015
:100BC000EE6E0009FBE119D0EA6A130EE96E000E21
:100BD00070EC00F00A000900F550EE6E0009FBE130
:100BE0000CD0EA6A130EE96E000E7AEC00F00A00EF
:100BF0000900F550EE6E0009FBE1166A0C0E1D6E41
:100C000050DEEA6A0C0EE96E6FDE200E1D6E49DEC4
:100C1000EA6A100EE96E68DE200E1D6E42DE200EBE
:100C20001D6E3FDE07C017F0010E186E83DE3A0E10
:100C30001D6E37DE06C017F0010E186E7BDE3A0E11
:100C40001D6E2FDE05C017F0010E186E73DE0A0E42
:100C50001D6E27DEEA6A130EE96E46DE150EF66E8D
:100C6000010EF76E050E176EBAD609C017F0010E09
:100C7000186E60DE2F0E1D6E14DE0AC017F0010E16
:100C8000186E58DE2F0E1D6E0CDE0BC017F0010E15
:080C9000186E50DED0D60300FF
:020000040030CA
:0E00000000260E0E000181000FC00FE00F4021
:00000001FF
;PIC18F452
;CRC=8123  CREATED="29-jul-13 08:06"
