:100000004FEF01F0080E016E00D08B96949600D051
:10001000000014368B98D8B09488D8A09498948611
:1000200082A6FED7012EF0D700D08B9694960000C2
:10003000948800D0000000D00000948682A6FED7ED
:10004000016A00D0000082B801808B9694968B984C
:1000500094981200080E116E00C012F0948800D01F
:100060000000948682A6FED782B8D88082A8D89055
:10007000013600D094968B96112EF0D7948800D03C
:1000800000008B981250D8A494980000948682A601
:10009000FED700D08B96949600D000008B98949851
:1000A000120011C012F0D8901232780E12161230CF
:1000B000006E00323F0E001600501224136E1150D5
:1000C0000F0B1324016E12001350016A125C03E23D
:1000D00012C000F00CD0006A080E146E1236003602
:1000E0001350005CD8B0006E0136142EF7D7120002
:1000F000200E0DA8300E0E6E0CC000F00CAE08D015
:10010000001E002A00C00CF02D0E0E6E0D8E0D800C
:1001100001500CC012F0640E136ED6DF00C00CF05C
:10012000300E01240F6E0CC012F00A0E136ECCDFDD
:10013000300E0024116E300E0124106E0EC000F03F
:10014000300E0F5C04E00D820DBE0D8412D00DB494
:1001500010D00EC00FF00DB204D0300E105C04E0D1
:100160000D800DBE0D8205D0D8A40D80D8B40FC06F
:1001700010F00DB405D00DB207D00DB009D00CD0E1
:100180000E509EA8FED7AD6E0F509EA8FED7AD6E46
:1001900010509EA8FED7AD6E11509EA8FED7AD6E32
:1001A000120013C014F0156A1450090805E20A0E73
:1001B000145E100E152603D01450152601D0F4D766
:1001C00015C001F01200129E3F0E1016948800D048
:1001D000948600D000008B98949800D08B969496CB
:1001E000D00E146E0FDF00D0146A0CDF12C013F0B3
:1001F000D8DF01C013F001C014F004DF11C013F008
:10020000D0DF01C013F001C014F0FCDE10C013F009
:10021000C8DF01C013F001C014F0F4DE0FC013F00A
:10022000C0DF01C013F001C014F0ECDE0CC013F00D
:10023000B8DF01C013F001C014F0E4DE0DC013F00C
:10024000B0DF01C013F001C014F0DCDE0EC013F00B
:10025000A8DF01C013F001C014F0D4DE100E146E3C
:10026000D1DE94980000948682A6FED700D000D0FC
:100270000000948800D01200EA6A0D0EE96EEF507B
:100280000DE0020E016E006A002EFED7012EFBD794
:10029000970E006E002EFED7EF2EF3D71200F86AED
:1002A000D09EEA6AE96A0C0EAF6EA20EAC6E900E9A
:1002B000AB6EC180C182C184C196948800D09486FF
:1002C00000D000008B98949800D08B969496D00E16
:1002D000146E98DE00D0030E146E94DE948800D065
:1002E000948600D0000082A6FED78B98949800D008
:1002F0008B969496D10E146E85DE010E006EAADEEA
:1003000001507F0B0C6E116ECCDE01C00BF0010EA4
:10031000006EA0DE01503F0B0C6E116EC2DE01C0FC
:1003200008F0010E006E96DE01501F0B0C6E116E70
:10033000B8DE01C009F0006A8DDE01C00CF001C01A
:1003400011F0AFDE01C00AF094980000948682A6F6
:10035000FED700D000D00000948800D0948800D050
:10036000948600D000008B98949800D08B96949639
:10037000D00E146E47DE146A45DE948800D0948651
:1003800000D0000082A6FED78B98949800D08B9660
:100390009496D10E146E36DE010E006E5BDE0150B7
:1003A0007F0B0C6E116E7DDE01C005F0010E006E3C
:1003B00051DE01507F0B0C6E116E73DE01C006F032
:1003C000006A48DE01503F0B0C6E116E6ADE01C000
:1003D00007F094980000948682A6FED700D000D043
:1003E0000000948800D00C0E9EA8FED7AD6E08C009
:1003F0000CF0010E0D6E7CDE2F0E9EA8FED7AD6EAA
:1004000009C00CF0010E0D6E73DE2F0E9EA8FED7F4
:10041000AD6E0AC00CF0010E0D6E6ADE0A0E9EA8CB
:10042000FED7AD6E07C00CF0010E0D6E61DE3A0E08
:100430009EA8FED7AD6E06C00CF0010E0D6E58DE04
:100440003A0E9EA8FED7AD6E05C00CF0010E0D6EE3
:100450004FDE938081B01CD0082A08501F0802E2AA
:10046000010E086E08C00CF009C00DF00AC00EF0B5
:100470000BC00FF007C010F006C011F005C012F05D
:10048000A2DE020E0C6E960E0D6EF6DE0C2EFBD763
:10049000948082B01CD0092A09500C0802E2010E97
:1004A000096E08C00CF009C00DF00AC00EF00BC0B8
:1004B0000FF007C010F006C011F005C012F083DE87
:1004C000020E0C6E960E0D6ED7DE0C2EFBD79382AD
:1004D00081B21BD0072A0750170801E2076A08C03B
:1004E0000CF009C00DF00AC00EF00BC00FF007C0F1
:1004F00010F006C011F005C012F065DE020E0C6EA1
:10050000960E0D6EB9DE0C2EFBD7938481B41BD0F2
:10051000062A06503B0801E2066A08C00CF009C032
:100520000DF00AC00EF00BC00FF007C010F006C0AF
:1005300011F005C012F047DE020E0C6E960E0D6E25
:100540009BDE0C2EFBD7020E0C6EFA0E0D6E94DEA7
:080550000C2EFBD7B2D603000C
:020000040030CA
:0E00000000220E0E000181000FC00FE00F4025
:00000001FF
;PIC18F452
;CRC=6CE4  CREATED="25-jul-13 15:48"
