:10000000D0EF01F0EA6A130EE96EEF500DE0020E38
:10001000016E006A002EFED7012EFBD7970E006EF0
:10002000002EFED7EF2EF3D71200956A18C08CFF72
:1000300096928D8296928D921200956A8C6A969015
:100040008D9096928D920F0E136EDCDF010E0C6E6A
:100050000C50030808E3300E186EE7DF050E136E30
:10006000D1DF0C2AF5D7380E186EDFDF010E186EBF
:10007000DCDF010E136EC6DF0C0E186ED6DF060E27
:10008000186ED3DFD9EF01F096908D90165202E1F1
:100090008D9001D08D809690420E006E002EFED77E
:1000A000000096928D9217C018F0BFDF1200142C3A
:1000B00001D003D0C00E156E02D0800E156E010E59
:1000C000135C1526166A15C017F0DEDF12001250F9
:1000D0000C0A07E0060A0DE0070A0BE0050A0FE02C
:1000E00013D0166A010E176ECFDF020E136E8ADF71
:1000F00011D0010E136E020E146ED9DF0BD0166AEA
:10010000100E176EC1DF06D0010E166E12C017F06A
:10011000BBDF00D01200080E016E00D08B969496C3
:1001200000D0000014368B98D8B09488D8A094984A
:10013000948682A6FED7012EF0D700D08B96949697
:100140000000948800D0000000D00000948682A6B1
:10015000FED7016A00D0000082B801808B96949689
:100160008B9894981200080E116E00C012F09488BB
:1001700000D00000948682A6FED782B8D88082A8DC
:10018000D890013600D094968B96112EF0D7948893
:1001900000D000008B981250D8A494980000948648
:1001A00082A6FED700D08B96949600D000008B9844
:1001B0009498120011C012F0D8901232780E1216D4
:1001C0001230006E00323F0E001600501224136EE3
:1001D00011500F0B1324016E12001350016A125CB0
:1001E00003E212C000F00CD0006A080E146E123642
:1001F00000361350005CD8B0006E0136142EF7D7CD
:100200001200200E0DA8300E0E6E0CC000F00CAEC9
:1002100007D0001E002A00C00CF02D0E0E6E0D8EB1
:1002200001500CC012F0640E136ED7DF00C00CF04A
:10023000300E01240F6E0CC012F00A0E136ECDDFCB
:10024000300E0024116E300E0124106E0EC000F02E
:100250000DA602D00DAE0D940DB80BD00DAE22D070
:100260000DB420D000C00FF00DB21CD000C010F0B3
:1002700019D0300E0F5C16E100C00FF0200E0E6E8C
:100280000DA604D00D940D820DAE0D92300E105CB3
:1002900009E100C010F0200E0F6E0DA6F7D70D92E9
:1002A0000DAE0D900DA403D00EC012F010DF0DA204
:1002B00003D00FC012F00BDF0DA003D010C012F05E
:1002C00006DF11C012F003DF120013C014F0156A2C
:1002D0001450090805E20A0E145E100E152603D00C
:1002E0001450152601D0F4D715C001F01200129E4B
:1002F0003F0E1016948800D0948600D000008B9892
:10030000949800D08B969496D00E146E04DF00D093
:10031000146A01DF12C013F0D8DF01C013F001C06E
:1003200014F0F9DE11C013F0D0DF01C013F001C0EA
:1003300014F0F1DE10C013F0C8DF01C013F001C0EB
:1003400014F0E9DE0FC013F0C0DF01C013F001C0EC
:1003500014F0E1DE0CC013F0B8DF01C013F001C0EF
:1003600014F0D9DE0DC013F0B0DF01C013F001C0EE
:1003700014F0D1DE0EC013F0A8DF01C013F001C0ED
:1003800014F0C9DE100E146EC6DE94980000948638
:1003900082A6FED700D000D00000948800D01200C2
:1003A000F86AD09EEA6AE96AC180C182C184C196B6
:1003B00044D60C0E126E8BDE948800D0948600D04A
:1003C00000008B98949800D08B969496D00E146E63
:1003D000A2DE00D0030E146E9EDE948800D09486B8
:1003E00000D0000082A6FED78B98949800D08B9600
:1003F0009496D10E146E8FDE010E006EB4DE0150A5
:100400007F0B0C6E116ED6DE01C00BF0010E006E7C
:10041000AADE01503F0B0C6E116ECCDE01C008F05D
:10042000010E006EA0DE01501F0B0C6E116EC2DEBD
:1004300001C009F0006A97DE01C00CF001C011F0A4
:10044000B9DE01C00AF094980000948682A6FED717
:1004500000D000D00000948800D0948800D094860A
:1004600000D000008B98949800D08B969496D00E74
:10047000146E51DE146A4FDE948800D0948600D04A
:10048000000082A6FED78B98949800D08B96949605
:10049000D10E146E40DE010E006E65DE01507F0B42
:1004A0000C6E116E87DE01C005F0010E006E5BDE82
:1004B00001507F0B0C6E116E7DDE01C006F0006AEC
:1004C00052DE01503F0B0C6E116E74DE01C007F05E
:1004D00094980000948682A6FED700D000D0000039
:1004E000948800D0010E136E146EE1DD08C00CF08C
:1004F000010E0D6E86DE2F0E126EE9DD09C00CF0C6
:10050000010E0D6E7EDE2F0E126EE1DD0AC00CF0C4
:10051000010E0D6E76DE0A0E126ED9DD07C00CF0EC
:10052000010E0D6E6EDE3A0E126ED1DD06C00CF0BD
:10053000010E0D6E66DE3A0E126EC9DD05C00CF0BE
:10054000010E0D6E5EDE938081B01CD0082A08502B
:100550001F0802E2010E086E08C00CF009C00DF081
:100560000AC00EF00BC00FF007C010F006C011F06B
:1005700005C012F0BCDE020E0C6E960E136E42DD4C
:100580000C2EFBD7948082B01CD0092A09500C088D
:1005900002E2010E096E08C00CF009C00DF00AC09D
:1005A0000EF00BC00FF007C010F006C011F005C030
:1005B00012F09DDE020E0C6E960E136E23DD0C2ED5
:1005C000FBD7938281B21BD0072A0750170801E29C
:1005D000076A08C00CF009C00DF00AC00EF00BC08D
:1005E0000FF007C010F006C011F005C012F07FDE5A
:1005F000020E0C6E960E136E05DD0C2EFBD7938447
:1006000081B41BD0062A06503B0801E2066A08C0E6
:100610000CF009C00DF00AC00EF00BC00FF007C0BF
:1006200010F006C011F005C012F061DE020E0C6E73
:10063000960E136EE7DC0C2EFBD7020E0C6EFA0E34
:0C064000136EE0DC0C2EFBD7B7D60300D5
:020000040030CA
:0E00000000220E0E000181000FC00FE00F4025
:00000001FF
;PIC18F452
;CRC=D1C2  CREATED="03-fev-12 08:54"
