:100000000EEF02F00C4572726F2C206E616F207241
:100010006573706F6E6465000C446973702E204FB9
:100020004B2E2E2E00000C2575204C53423A257580
:10003000204D53423A257500080E016E180E006ED1
:10004000002EFED78B969496180E006E002EFED7CB
:1000500009368B98D8B09488D8A09498948682A6B4
:10006000FED7012EEBD7180E006E002EFED78B9612
:10007000949600009488180E006E002EFED7180E7D
:10008000006E002EFED7948682A6FED7016A180E57
:10009000006E002EFED782B801808B9694968B98C6
:1000A0009498120008809488180E006E002EFED7D7
:1000B0009486180E006E002EFED78B989498180E1A
:1000C000006E002EFED78B96949607C009F0B4DF21
:1000D0000150089001B0088094980000948682A690
:1000E000FED7180E006E002EFED700D000009488B8
:1000F000180E006E002EFED7000E08B0010E016E25
:100100001FEF02F00900F5520DE0F6CF07F0F7CF30
:1001100008F0F5509EA8FED7AD6E07C0F6FF08C0E8
:10012000F7FFF0D71200080E0A6E00C00BF094889B
:10013000180E006E002EFED7948682A6FED782B8D7
:10014000D88082A8D8900136180E006E002EFED7F7
:1001500094968B960A2EEBD79488180E006E002E7C
:10016000FED78B980B50D8A494980000948682A652
:10017000FED7180E006E002EFED78B969496180EA2
:10018000006E002EFED78B9894981200076A948810
:10019000180E006E002EFED79486180E006E002EEC
:1001A000FED78B989498180E006E002EFED78B9673
:1001B0009496D00E096E40DF096A3EDF9488180ECF
:1001C000006E002EFED79486180E006E002EFED70D
:1001D00082A6FED78B989498180E006E002EFED73C
:1001E0008B969496D10E096E27DF006A9CDF01C0C2
:1001F00007F094980000948682A6FED7180E006E31
:10020000002EFED700D000009488180E006E002E3D
:10021000FED7079E070E006E002EFED700D09488F2
:10022000180E006E002EFED79486180E006E002E5B
:10023000FED78B989498180E006E002EFED78B96E2
:100240009496D00E096EF8DE096AF6DE07C009F052
:10025000F3DE9488180E006E002EFED79486180EDA
:10026000006E002EFED782A6FED78B989498180EAB
:10027000006E002EFED78B969496D00E096EDCDEB3
:10028000070E096ED9DE100E096ED6DE94980000B6
:10029000948682A6FED7180E006E002EFED700D0E0
:1002A00000009488180E006E002EFED730EF02F08A
:1002B000EA6A080EE96EEF500DE00A0E016E006A60
:1002C000002EFED7012EFBD75F0E006E002EFED74C
:1002D000EF2EF3D735EF02F0086A9488180E006EFF
:1002E000002EFED79486180E006E002EFED78B9837
:1002F0009498180E006E002EFED78B969496D00E12
:10030000096E9ADE07C009F097DE9488180E006E19
:10031000002EFED79486180E006E002EFED782A601
:10032000FED78B989498180E006E002EFED78B96F1
:100330009496D10E096E80DE006AF5DE01C008F0E9
:1003400094980000948682A6FED7180E006E002EA8
:10035000FED700D000009488180E006E002EFED745
:1003600008C001F039EF02F00A50016A095C03E2AB
:1003700009C000F00CD0006A080E0B6E093600367A
:100380000A50005CD8B0006E01360B2EF7D7120071
:10039000015007C009F0640E0A6EE6DF00C007F0E6
:1003A0000150300E07E108A20DD008B60BD008B8F6
:1003B000200E03D0089608980880012601509EA8B8
:1003C000FED7AD6E07C009F00A0E0A6ECDDF00C081
:1003D00007F00150300E06E108B609D008A007D09A
:1003E00008B8200E012601509EA8FED7AD6E300E33
:1003F000072607509EA8FED7AD6E12000900F6CF63
:1004000008F0F7CF09F0F5509EA8FED7AD6E08C0F2
:10041000F6FF09C0F7FF072EF1D71200F86AD09E49
:10042000EA6AE96A330EAF6EA20EAC6E900EAB6E46
:10043000C180C182C184C196D00E076E33D60152ED
:1004400009E0040EF66E000EF76E5CDE010E016E22
:1004500050D005D0180EF66E000EF76E53DE96D60D
:10046000020E076EFA0E086E23D7072EFBD7076A17
:1004700033D701C004F00450F0090F0B056E04508F
:100480000F09700B006E0038066E0F0E06160C0E6C
:100490009EA8FED7AD6E04C007F01B0E086E78DF75
:1004A000290EF66E000EF76E050E076EA7DF05C06B
:1004B00007F01B0E086E6CDF300EF66E000EF76E46
:1004C000050E076E9BDF06C007F01B0E086E60DF8F
:1004D0000A0E9EA8FED7AD6E06C007F01B0E086E72
:1004E00057DF05C007F01B0E086E52DFB9D7000EAC
:0404F000016E030096
:020000040030CA
:0E00000000260E0E000181000FC00FE00F4021
:00000001FF
;PIC18F452
;CRC=4127  CREATED="25-jul-13 16:32"
